:020000040800F2
:10000000A04600200DDD0008B101000817DD000842
:10001000B3010008B7010008BB01000800000000A0
:10002000000000000000000000000000BF01000808
:10003000C10100080000000023DD0008C301000822
:1000400027DD000827DD000827DD000827DD000880
:1000500027DD000827DD000827DD000827DD000870
:1000600027DD000827DD000827DD000827DD000860
:1000700027DD000827DD000827DD000827DD000850
:1000800027DD000827DD000827DD000827DD000840
:1000900027DD000827DD000827DD000827DD000830
:1000A00027DD000827DD000827DD000827DD000820
:1000B00027DD0008D5010008DD01000827DD000864
:1000C00027DD000827DD000827DD000827DD000800
:1000D00027DD0008F5980008E501000827DD000885
:1000E00027DD000827DD000827DD000827DD0008E0
:1000F00027DD000827DD000827DD000827DD0008D0
:1001000027DD000827DD000827DD000827DD0008BF
:1001100027DD0008ED01000827DD000827DD0008C5
:1001200027DD000827DD000827DD000827DD00089F
:1001300027DD000827DD000827DD000827DD00088F
:1001400027DD000827DD000827DD0008C1A700081B
:1001500027DD000827DD000827DD000827DD00086F
:1001600027DD000827DD000827DD000827DD00085F
:1001700027DD000827DD000827DD000827DD00084F
:1001800027DD000827DD0008DFF80CD011F036FE6F
:10019000004800479D010008A046002000F01DF91E
:1001A0000249087001E000F0C3F8FCE700000020FD
:1001B000704700BFFEE700BFFEE700BFFEE77047E5
:1001C000704710B50B480068401C0A49086007F0EA
:1001D00003F810BD10B507F0F4F910BD10B507F025
:1001E000F7FA10BD10B509F0B5F910BD10B509F05A
:1001F0008DFA10BD680500206E48C089401C6D490D
:10020000C88108468088401C00B288800846C088A3
:10021000401C00B2C88008460089401C00B208811A
:1002200008464089401C00B2488108468089401C2D
:1002300000B2888108460078012804D10846407839
:10024000401C487002E001205A490870704710B500
:10025000012007F000F803F0F3FE10BD10B52DEDFE
:10026000028B002006F0F7FF00EE100AB8EE400AFD
:10027000DFED510A80EE201AB0EE418A07F03AFF16
:10028000B0EE480A08F0C0F94C48D0ED063AB0EE9E
:10029000633AD0ED053AF0EE632AD0ED043AB0EEC1
:1002A000632AD0ED0C3AF0EE631AD0ED0B3AB0EEC3
:1002B000631AD0ED0A3AF0EE630AF6EE003A68EE01
:1002C000233AB0EE630A3E4A3E493F4801F014FC2F
:1002D000B0EE480A01F068F83C48B0EE480A05F074
:1002E000C9F8BDEC028B10BD10B52DED028B0220BC
:1002F00006F0B1FF00EE100AB8EE400ADFED2E0A5C
:1003000080EE201AB0EE418AB0EE480A00F09CFB65
:10031000BDEC028B10BD10B508F0F6FD10BD10B598
:1003200000F052FB10BD10B500240AF0BFFF10BD55
:1003300010B52048007801283BD12548008800B23C
:1003400024490880FFF783FF1A48B0F90400022807
:1003500004DB002017498880FFF780FF1548B0F9BB
:100360000600052804DB00201249C880FFF7BCFF07
:100370001048B0F908000A2804DB00200D49088164
:10038000FFF7C9FF0B48B0F90A00142804DB00206E
:1003900008494881FFF7C3FF0648B0F90C0032282E
:1003A00004DB002003498881FFF7BDFF00200149DD
:1003B000087010BD10070020002474498433002009
:1003C00024000020200000201C00002074330020A6
:1003D0007805002002000020704710B54FF48060BF
:1003E0000BF09CF806F096FE07F0C5FC06F08CFFBB
:1003F0004FF4C87007F0EAFA4FF4C87006F0E0FE58
:10040000142007F059FF08F085FD4FF4E13009F0A2
:10041000CAF94FF4E12008F0F3FF00F033FA64204A
:1004200006F0CEFE0AF03CFF08F042FB80F001002F
:100430000249087006F04AFF012010BDEC050020BB
:1004400038B50122F7A1F8480FF072FE0446C4B196
:1004500000221146F3A010F064FE044614B14FF0E0
:10046000FF3038BD0022EFA1EF480FF061FE0446D7
:100470003CB10022EBA110460FF05AFE6FF00100D4
:10048000EFE7EAA1EA4810F00AFB04463CB100227B
:10049000E4A110460FF04CFE6FF00200E1E70122EC
:1004A000E4A1E7480FF06FFE04463CB10022DDA155
:1004B00010460FF03DFE6FF00300D2E76B4640227E
:1004C000E049DF480FF011FF0446009878B3DC489C
:1004D00010F06AF90122DCA1D9480FF054FE04465D
:1004E0003CB10022CFA110460FF022FE6FF00300B6
:1004F000B7E76B46C022D649D1480FF0F6FE044656
:10050000009848B1CE4810F04FF90022C5A110461E
:100510000FF00EFE0120A4E7C94810F045F90022B3
:10052000C0A110460FF004FE6FF0030099E7FFE74B
:10053000C34810F039F90022BAA110460FF0F8FDB7
:100540006FF004008DE738B50022B6A1B6480FF071
:10055000EFFD0446C4B100221146B2A010F0E1FD47
:10056000044614B14FF0FF3038BD0022ADA1AE48B3
:100570000FF0DEFD04463CB10022AAA110460FF0A8
:10058000D7FD6FF00100EFE7A8A1A94810F087FAA6
:1005900004463CB10022A3A110460FF0C9FD6FF044
:1005A0000200E1E70A22A3A1A5480FF0ECFD0446F2
:1005B0003CB100229BA110460FF0BAFD6FF0030082
:1005C000D2E76B4640229F499D480FF087FF0446C3
:1005D00074BB9B4810F0E8F80A229BA198480FF0E2
:1005E000D2FD04463CB100228EA110460FF0A0FDC2
:1005F0006FF00300B8E76B46C022954990480FF0B2
:100600006DFF04464CB98E4810F0CEF8002285A14B
:1006100010460FF08DFD0120A6E7894810F0C4F8C0
:10062000002280A110460FF083FD6FF003009BE7CE
:10063000834810F0B9F800227AA110460FF078FD37
:100640006FF0040090E710B582487E4BD3E900219B
:100650009B68C0E90E1342637A4BD3E903215B69BF
:10066000C0E9111302647C48764B18330ECB083076
:100670000EC0784A734B24330BCB58320BC27148EF
:1006800090ED0D0A734880ED190A6E4890ED0E0A40
:10069000704880ED1A0A71486D4C1ECC54301EC053
:1006A00064386B49D1E905340A69C969C0E91A346B
:1006B00042660167664BD3E909141A6ADB6AC0E92E
:1006C0001F43C0E91D216648614BD3E90C41D3E9C2
:1006D0000E23C0E91541C0E917235D49D1E9114353
:1006E0000A6CC96CC0E91A43426601675849D1E9EE
:1006F0001434D1E91621C0E91D34C0E91F2110BD11
:1007000010B500F08FF905F0CBFC10BD10B59FEDD2
:10071000550A4F4880ED040A9FED520A80ED000A09
:10072000B7EE000A80ED080A9FED4F0A80ED060A39
:100730009FED4D0A80ED020A9FED4B0A80ED0A0AFB
:100740009FED4A0A80ED050A9FED480A80ED010AF7
:10075000B0EE000A80ED090AB7EE000A80ED070A44
:10076000B7EE000A80ED030AB7EE000A80ED0B0A2F
:10077000B6EE000A80ED100AB6EE000A80ED0C0A13
:100780009FED3B0A80ED140A9FED3A0A80ED120AB4
:100790009FED380A80ED0E0A9FED360A80ED160AAD
:1007A0009FED350A80ED110A9FED330A80ED0D0AA9
:1007B0009FED2D0A80ED150AB7EE000A80ED200AA4
:1007C000B7EE000A80ED220AB7EE000A80ED210A9A
:1007D000B7EE000A80ED240AB7EE000A80ED260A83
:1007E000B7EE000A80ED250A9FED240A80ED180A75
:1007F000B7EE000A80ED1A0AB7EE000A80ED190A7A
:10080000B1EE040A80ED1C0A9FED1D0A80ED1E0A60
:10081000B6EE000A80ED1D0AFFF715FFFFF770FF27
:1008200010BD0000303A0000200800202F0000001A
:100830007828002073656E736F722E62696E0000F7
:1008400050180020200700207069642E62696E0035
:100850006007002084330020C00500209428002079
:10086000582900209A99193FCDCCCC3DCDCC0C40D5
:10087000CDCC4C3FCDCC4C3D9A99993E6666E63F37
:100880008FC2F53C10B501225A495B480AF01DFEA3
:1008900058480078012804D14022584958480AF0A5
:1008A00014FEFFF733FF53480078012804D1C0221B
:1008B000544955480AF009FEFFF7C5FEFFF720FF2F
:1008C00010BD10B50446514894E80E0034300EC0F7
:1008D0004A4894E80E000EC04C4890ED190A47486B
:1008E00080ED0D0AFFF72FFE10BD10B504464748F6
:1008F00094E80E0040300EC0404894E80E000C30E2
:100900000EC0424890ED1A0A3C4880ED0E0AFFF7EF
:100910001AFE10BD10B504463D4894E80E0008309C
:100920000EC0364894E80E0018300EC0FFF70BFEDC
:1009300010BD10B50446354894E80E0058300EC07E
:100940002E4894E80E0024300EC0FFF7FCFD10BDC9
:1009500010B52C482F49D1E916344A6D096E80E84C
:100960001C00C16001462B48D0E91A34426E006F6A
:10097000C1E905340A61C8612648D0E91E34426FD6
:10098000D0F88000C1E909340A62C8620A46224CE4
:10099000D4E91530D4E91714C2E90E14C2E90C30B9
:1009A00010461D49D1E91942D1E91B31C0E9104275
:1009B000C0E912311849D1E91D42D1E91F31C0E91E
:1009C0001442C0E9163110BD00B51448008820B1AA
:1009D00012480088401C11490880104800883C28B3
:1009E00007DD00200D4908800D48007808B9FFF7A1
:1009F000AFFF00BD0500002000000C08200700200C
:100A000000000E086007002000000A088433002060
:100A1000C0050020942800205829002078040020D8
:100A2000D4040020B7EE000AF74880ED180AB7EEAC
:100A3000000A80ED1C0AB7EE000A80ED200A9FED47
:100A4000F30A80ED300A704710B52DED028BB0EE41
:100A5000408AEF48D0ED000AB0EE600AB7EE001A07
:100A6000DFEDEC0A02F059FBDFEDEB0A80EE201A15
:100A7000B3EE0E0A21EE000AE84880ED000AE448D1
:100A8000D0ED010AF1EE600AB0EE600AB7EE001A8E
:100A9000DFEDE00A02F041FBDFEDDF0A80EE201A15
:100AA000B3EE0E0A21EE000ADC4880ED010ADC48B4
:100AB000007818BBD648D0ED030AB0EE600A9FED6F
:100AC000D91ADFEDD40A02F043FBDFEDD30A80EE42
:100AD000201A9FEDD50A21EE000ABDEEC00A10EEE5
:100AE000100A00B200EE100AF8EEC00ACB4890EDF2
:100AF000020A00EE880A80ED020A0AE0C74890ED7B
:100B0000020ACA48D0ED000A30EE200AC34880ED40
:100B1000020AC248D0ED020AB0EE600A02F066FB9B
:100B2000BE4880ED020AC248D0ED000ABB4890EDF5
:100B3000001A70EE810ABF4890ED001A70EEC10AEB
:100B4000B0EE600A02F052FBBB4880ED000AB848E4
:100B5000D0ED010AB14890ED011A70EE810AB74854
:100B600090ED001A70EEC10AB0EE600A02F03EFB92
:100B7000B14880ED010AAE48D0ED020AA74890EDD9
:100B8000021A70EE810AA94890ED001A70EEC10AAF
:100B9000B0EE600A02F02AFBA74880ED020A90ED51
:100BA000000AB5EEC00AF1EE10FA02DD90ED000A7F
:100BB00004E0A14890ED000AB1EE400AF3EE0E0AFF
:100BC00080EE201A9C4880ED2D1A90ED010AB5EEBA
:100BD000C00AF1EE10FA02DD90ED010A04E0964839
:100BE00090ED010AB1EE400AF3EE0E0A80EE201AF3
:100BF000914880ED2E1A90ED020AB5EEC00AF1EE92
:100C000010FA02DD90ED020A04E08B4890ED020A32
:100C1000B1EE400AF3EE0E0A80EE201A864880ED0F
:100C20002F1ADFED870A80EE880AD0ED000A90EDDA
:100C3000031A70EEC10A90ED161AF2EE041A21EEB4
:100C4000211A60EE810A20EE200A80ED0C0ADFED09
:100C50007C0A80EE880AD0ED010A90ED041A70EE4D
:100C6000C10A90ED1A1AF2EE041A21EE211A60EE72
:100C7000810A20EE200A80ED0D0ADFED710A80EE78
:100C8000880AD0ED020A90ED051A70EEC10A90EDC7
:100C90001E1AF2EE041A21EE211A60EE810A20EEED
:100CA000200A80ED0E0A90ED170AD0ED000A60EEE2
:100CB000200A90ED060A00EE880A80ED060A90ED03
:100CC0001B0AD0ED010A60EE200A90ED070A00EE43
:100CD000880A80ED070A90ED1F0AD0ED020A60EE47
:100CE000200A90ED080A00EE880A80ED080A5548AF
:100CF00090ED000AF6EE000A20EE200AF3EE0E0A4E
:100D000020EE200A4C4880ED090A4E4890ED000A7A
:100D1000F6EE000A20EE200AF3EE0E0A20EE200A7C
:100D2000454880ED0A0A474890ED000AF6EE000AB1
:100D300020EE200AF3EE0E0A20EE200A3E4880ED57
:100D40000B0A90ED060AD0ED090AF1EE600AB4EE46
:100D5000E00AF1EE10FA04D290ED090AB1EE400A71
:100D60000FE0354890ED060AD0ED090AB4EEE00A2E
:100D7000F1EE10FA02DD90ED090A02E02E4890ED46
:100D8000060A2D4880ED060A90ED070AD0ED0A0A02
:100D9000F1EE600AB4EEE00AF1EE10FA04D290ED42
:100DA0000A0AB1EE400A0FE0234890ED070AD0EDA1
:100DB0000A0AB4EEE00AF1EE10FA02DD90ED0A0A3A
:100DC00002E01D4890ED070A1B4880ED070A90EDF0
:100DD000080AD0ED0B0AF1EE600AB4EEE00AF1EE7B
:100DE00010FA04D290ED0B0AB1EE400A2FE012483F
:100DF00090ED080AD0ED0B0AB4EEE00AF1EE10FA1D
:100E000022DD90ED0B0A22E094280020CDCC4C3E50
:100E1000082C0020000000000000FA431C2A0020DB
:100E20000C00002000002042000016432400002097
:100E3000282A00201C000020582900202000002023
:100E40000AD7A33B10000020F94890ED080AF848A3
:100E500080ED080A90ED000A80ED030A90ED010A8A
:100E600080ED040A90ED020A80ED050A90ED000A7B
:100E7000DFEDF00AB4EEE00AF1EE10FA02D29FEDD7
:100E8000ED0A0FE0EA4890ED000ADFEDEB0AB4EE60
:100E9000E00AF1EE10FA02DD9FEDE70A02E0E44815
:100EA00090ED000AE24880ED000A90ED010ADFEDC6
:100EB000E10AB4EEE00AF1EE10FA02D29FEDDD0A8B
:100EC0000FE0DB4890ED010ADFEDDB0AB4EEE00A4B
:100ED000F1EE10FA02DD9FEDD80A02E0D44890ED61
:100EE000010AD34880ED010A90ED020ADFEDD10A34
:100EF000B4EEE00AF1EE10FA02D29FEDCE0A0FE056
:100F0000CB4890ED020ADFEDCC0AB4EEE00AF1EE38
:100F100010FA02DD9FEDC80A02E0C54890ED020A12
:100F2000C34880ED020A90ED000AD0ED0C0A30EEC5
:100F3000200AD0ED060A30EE200AD0ED150A20EE88
:100F4000200A80ED120A90ED010AD0ED0D0A30EE74
:100F5000200AD0ED070A30EE200AD0ED190A20EE63
:100F6000200A80ED130A90ED020AD0ED0E0A30EE51
:100F7000200AD0ED080A30EE200AD0ED1D0A20EE3E
:100F8000200A80ED140ABDEC028B10BD10B52DEDCA
:100F9000048B8AB0F0EE408AB0EE609AB0EE418ADF
:100FA0009FEDA60AB4EEC08AF1EE10FA02D29FEDD0
:100FB000A30A0BE09FEDA20AB4EEC08AF1EE10FA8C
:100FC00002DD9FED9F0A01E0B0EE480AB0EE408AD4
:100FD000B1EE680A30EE090A30EE080A8DED040A17
:100FE00038EE890A30EE480A8DED050A38EEC90A56
:100FF00030EE080A8DED060AB1EE680A30EE490AB5
:1010000030EE480A8DED070A002429E004A800EB21
:10101000840090ED000ADFED8B0AB4EEE00AF1EEF9
:1010200010FA02D29FED870A13E004A800EB8400B7
:1010300090ED000ADFED840AB4EEE00AF1EE10FA5A
:1010400002DD9FED810A04E004A800EB840090ED2E
:10105000000A04A800EB840080ED000A601CC4B202
:10106000042CD3DB9DED040A8DED000A9DED050AED
:101070008DED010A9DED060A8DED020A9DED070A30
:101080008DED030ADDED000A704890ED000A70480E
:1010900090ED001A01EE200A6E4880ED000ADDEDA9
:1010A000010A6A4890ED000A694890ED001A01EEC5
:1010B000200A684880ED010ADDED020A634890EDE0
:1010C000000A634890ED001A01EE200A614880EDA5
:1010D000020ADDED030A5D4890ED000A5C4890EDE0
:1010E000001A01EE200A5B4880ED030A5A48007896
:1010F00000285ED05948007870BB002429E055488C
:1011000000EB840090ED000ADFED550AB4EEE00A32
:10111000F1EE10FA02D29FED520A13E04D4800EBB7
:10112000840090ED000ADFED480AB4EEE00AF1EE2B
:1011300010FA02DD9FED440A04E0464800EB84000B
:1011400090ED000A434800EB840080ED000A601C2B
:10115000C4B2042CD3DB39E0002427E03D4800EB87
:10116000840090ED000AB5EEC00AF1EE10FA02D24A
:101170001FEDD80A13E0374800EB840090ED000A19
:10118000DFED310AB4EEE00AF1EE10FA02DD9FED78
:101190002E0A04E02F4800EB840090ED000A2D4851
:1011A00000EB840080ED000A601CC4B2042CD5DB87
:1011B0000CE0002408E01FEDE90A264800EB84005B
:1011C00080ED000A601CC4B2042CF4DB214890EDD1
:1011D000000ABDEEC00A10EE100A00B2ADF8200001
:1011E0001C4890ED010ABDEEC00A10EE100A00B2D4
:1011F000ADF82200174890ED020ABDEEC00A10EECD
:10120000100A00B2ADF82400124890ED030ABDEEBA
:10121000C00A10EE100A00B2ADF826004FF47A7240
:10122000002108A806F041FD0AB0BDEC048B10BDFA
:10123000582900200000B4C20000B4420000C8C316
:101240000000C84300007AC400007A44080000206F
:1012500010000020682A0020D40400200C00002088
:101260000000484310B52DED028BB0EE408AFE48D9
:1012700090ED020ADFEDFD0A30EE200AFC4880ED19
:10128000000AFC4890ED000A5FED130A80EE201A78
:10129000F94890ED000A71EE400A9FEDF80A28EE39
:1012A000001A90ED000A01EE200A80ED000A90ED90
:1012B000000AB5EEC00AF1EE10FA02D29FEDF00A74
:1012C0000FE0ED4890ED000AF7EE000AB4EEE00AF8
:1012D000F1EE10FA02DDB7EE000A02E0E64890ED0A
:1012E000000AE84880ED000AE14890ED000ADFEDD1
:1012F000E60AB4EEE00AF1EE10FA03D20120E34967
:10130000087002E00020E1490870E1480078E8B97F
:10131000D74890ED000AB5EEC00AF1EE10FA02D2FD
:101320009FEDD70A0FE0D24890ED000ADFEDD90A11
:10133000B4EEE00AF1EE10FA02DD9FEDD60A02E00B
:10134000CB4890ED000ACA4880ED000AB7EE001ABB
:10135000D1480078C649D1ED000AB0EE480A04F041
:101360001FFFC44880ED000A90ED000AB5EEC00AE8
:10137000F1EE10FA02D29FEDC20A0FE0BD4890EDE7
:10138000000ADFEDC60AB4EEE00AF1EE10FA02DD63
:101390009FEDC20A02E0B74890ED000AB54880ED23
:1013A000000ABDEC028B10BD00B52DED028B83B0A1
:1013B000B0EE408ABA4890ED120AF3EE0E0A80EEC3
:1013C000201A9FEDB80A21EE000A8DED000AD0ED3B
:1013D000130AB3EE0E1A80EE810ADFEDB20A20EE98
:1013E000200A8DED010A90ED140AF3EE0E0A80EE4C
:1013F000201A9FEDAD0A21EE000A8DED020A9DED47
:10140000000AAA4880ED000A9DED010A80ED010A5C
:101410009DED020A80ED020A90ED000ADFEDA40ABC
:10142000B4EEE00AF1EE10FA02D29FEDA10A0FE04D
:101430009E4890ED000ADFED9B0AB4EEE00AF1EE63
:1014400010FA02DD9FED970A02E0984890ED000A3D
:10145000964880ED000A90ED010ADFED950AB4EEA2
:10146000E00AF1EE10FA02D29FED910A0FE08F48E8
:1014700090ED010ADFED8B0AB4EEE00AF1EE10FA0E
:1014800002DD9FED880A02E0884890ED010A874856
:1014900080ED010A90ED020ADFED860AB4EEE00A63
:1014A000F1EE10FA02D29FED830A0FE07F4890ED33
:1014B000020ADFED7D0AB4EEE00AF1EE10FA02DD79
:1014C0009FED790A02E0794890ED020A774880EDB5
:1014D000020ADFED790A80EE880A7848D0ED0A0A20
:1014E000774890ED001A70EEC10A20EE200A754888
:1014F00080ED0F0ADFED700A80EE880A6F48D0EDAC
:101500000B0AF1EE600A6E4890ED011A70EEC10A06
:1015100020EE200A6B4880ED100ADFED670A80EEAE
:10152000880A6648D0ED0C0AF1EE600A644890ED36
:10153000021A70EEC10A20EE200A624880ED110AFC
:101540005A4890ED000A5D48D0ED0A0A30EE600A74
:10155000F7EE000A20EE200A5A4880ED000A5348B0
:1015600090ED010A5548D0ED0B0A30EE200AF7EE57
:10157000000A20EE200A534880ED010A4B4890ED06
:10158000020A4E48D0ED0C0A30EE200AF7EE000AAF
:1015900020EE200A4B4880ED020A90ED000AB5EEDD
:1015A000C00AF1EE10FA02DD90ED000A04E04548B1
:1015B00090ED000AB1EE400ADFED3A0A80EE201A03
:1015C000404880ED2D1A90ED010AB5EEC00AF1EE0B
:1015D00010FA02DD90ED010A04E03A4890ED010AAC
:1015E000B1EE400ADFED2F0A80EE201A354880ED7B
:1015F0002E1A90ED020AB5EEC00AF1EE10FA02DDE5
:1016000090ED020A04E02F4890ED020AB1EE400A84
:10161000DFED250A80EE201A2A4880ED2F1ADFED33
:10162000260A80EE880AD0ED160A90ED0F1AFAEE1F
:10163000041A21EE211A60EE810A20EE200A80EDC4
:101640000C0ADFED1D0A80EE880AD0ED1A0A90ED33
:10165000101AFAEE041A21EE211A60EE810A20EE29
:10166000200A80ED0D0A2FE0082C00200000FA432C
:101670001400002008000020180000203433FB4133
:1016800000000000100000200000C8420C000020F4
:101690009B0400200000AF43D40400200000484415
:1016A000582900200000964300001643402A0020DD
:1016B000000096C3000016C36F12033B8433002062
:1016C0004C2A0020942800205FED050A80EE880A4D
:1016D000D0ED1E0A90ED111AFAEE041A21EE211A2D
:1016E00060EE810A20EE200A80ED0E0A90ED000ADD
:1016F000D0ED0F0A30EE600AD0ED170A60EE200A36
:1017000090ED060A00EE880A80ED060A90ED010AC7
:10171000D0ED100A30EE600AD0ED1B0A60EE200A10
:1017200090ED070A00EE880A80ED070A90ED020AA4
:10173000D0ED110A30EE600AD0ED1F0A60EE200AEB
:1017400090ED080A00EE880A80ED080AE24890ED64
:10175000000AF6EE000A20EE200A5FED2E0A20EEC7
:10176000200ADE4880ED090ADB4890ED000AF6EE1B
:10177000000A20EE200A5FED350A20EE200AD74845
:1017800080ED0A0AD44890ED000AF6EE000A20EE39
:10179000200A5FED3C0A20EE200AD04880ED0B0ABB
:1017A00090ED060AD0ED090AF1EE600AB4EEE00A07
:1017B000F1EE10FA04D290ED090AB1EE400A0FE002
:1017C000C64890ED060AD0ED090AB4EEE00AF1EE43
:1017D00010FA02DD90ED090A02E0C04890ED060A19
:1017E000BE4880ED060A90ED070AD0ED0A0AF1EE38
:1017F000600AB4EEE00AF1EE10FA04D290ED0A0AA3
:10180000B1EE400A0FE0B54890ED070AD0ED0A0AA4
:10181000B4EEE00AF1EE10FA02DD90ED0A0A02E001
:10182000AE4890ED070AAD4880ED070A90ED080A32
:10183000D0ED0B0AF1EE600AB4EEE00AF1EE10FA18
:1018400004D290ED0B0AB1EE400A0FE0A34890EDF0
:10185000080AD0ED0B0AB4EEE00AF1EE10FA02DD50
:1018600090ED0B0A02E09D4890ED080A9B4880ED40
:10187000080A90ED300AF7EE000A30EEC00AD0ED0B
:10188000150A20EE200AD0ED000A90ED0C1A70EE39
:10189000810A90ED061A70EE810A60EE200A90ED42
:1018A000301A8F48D0ED2D1A9FED8E0A9FED8E2AAB
:1018B00002EE210AB5EEC00AF1EE10FA02D21FEDD7
:1018C000900A1BE08648D0ED2D1A9FED860A9FED09
:1018D000862A02EE210AF7EE001AB4EEE10AF1EED2
:1018E00010FA02DDB7EE000A08E07D48D0ED2D1AAF
:1018F0009FED7C0A9FED7C2A02EE210A21EE000A70
:101900007A4890ED001A40EE010AB0EE000A20EE8F
:10191000800A724880ED120A90ED300AF7EE000A54
:1019200030EEC00AD0ED190A20EE200AD0ED010AEF
:1019300090ED0D1A70EE810A90ED071A70EE810A93
:1019400060EE200A90ED301A6548D0ED2E1A9FED1A
:10195000650A9FED652A02EE210AB5EEC00AF1EE96
:1019600010FA02D21FEDBA0A1BE05D48D0ED2E1A24
:101970009FED5C0A9FED5C2A02EE210AF7EE001A49
:10198000B4EEE10AF1EE10FA02DDB7EE000A08E06B
:101990005348D0ED2E1A9FED530A9FED532A02EEC5
:1019A000210A21EE000A514890ED011A40EE010A89
:1019B000B0EE000A20EE800A484880ED130A90ED50
:1019C000300AF7EE000A30EEC00AD0ED1D0A20EE14
:1019D000200AD0ED020A90ED0E1A70EE810A90ED09
:1019E000081A70EE810A60EE200A90ED301A3C4829
:1019F000D0ED2F1A9FED3B0A9FED3B2A02EE210A04
:101A0000B5EEC00AF1EE10FA02D21FEDE30A1BE0B8
:101A10003348D0ED2F1A9FED330A9FED332A02EEA3
:101A2000210AF7EE001AB4EEE10AF1EE10FA02DD37
:101A3000B7EE000A08E02A48D0ED2F1A9FED290AD8
:101A40009FED292A02EE210A21EE000A274890ED97
:101A5000021A40EE010AB1EE000A20EE800A1F4889
:101A600080ED140AB0EE480AFFF7FCFB1B48D0EDEE
:101A7000141AB0EE611AD0ED131AF0EE610AD0ED2F
:101A8000121AB0EE610AFFF781FA144890ED000ACD
:101A900080ED030A90ED010A80ED040A90ED020A40
:101AA00080ED050A124890ED0A0A124880ED000AFE
:101AB0000F4890ED0B0AB1EE400A0E4880ED010A86
:101AC0000B4890ED0C0AB1EE400A0A4880ED020A7C
:101AD00003B0BDEC028B00BD100000209428002054
:101AE000582900206666E63ECDCC0C3F402A0020F7
:101AF000843300204C2A002070B52DED108BB0EE01
:101B0000408AB0EE60EAF0EE41EAB0EE61FAF0EE43
:101B1000429AB0EE629AF0EE438A04460D461646AB
:101B20009FEDFE0A28EE000AF3EE040A20EE200ADA
:101B3000F0EE40AAFA48D0ED080A60EEA00A90ED57
:101B4000091AD0ED091A41EE210A90ED0A1AD0EDDA
:101B50000A1A41EE210AB0EE600A01F049F9F14893
:101B600080ED000A90ED000AB5EEC00AF1EE10FA21
:101B700038D0EB48D0ED080AEA4890ED001A80EE24
:101B8000810AE948D0ED000A70EE600A90ED000A83
:101B90000AEEA00A80ED000AE148D0ED090AE1480A
:101BA00090ED001A80EE810ADF48D0ED010A70EE58
:101BB000600A90ED010A0AEEA00A80ED010AD848F9
:101BC000D0ED0A0AD74890ED001A80EE810AD64877
:101BD000D0ED020A70EE600A90ED020A0AEEA00A49
:101BE00080ED020AD14AD049D14804F0D5F9CF4856
:101BF000D0ED000A60EEA00A90ED011AD0ED011AB6
:101C000041EE210AB0EE600A01F0F2F8C94880ED19
:101C1000000AC64890ED000AB5EEC00AF1EE10FACF
:101C200036D090ED010AB5EEC00AF1EE10FA2FD0D1
:101C300090ED020AB5EEC00AF1EE10FA28D0BD48C8
:101C400090ED000AB5EEC00AF1EE10FA20D0B748C8
:101C500090ED000AB748D0ED000A80EE201AB0EEF1
:101C600041BAB24890ED010AB248D0ED000A80EEC8
:101C7000201AF0EE41BAF0EE4B0AB0EE6B0A00F01B
:101C8000FCFFDFEDAD0A20EE200AAC4880ED000A33
:101C9000AB4890ED010AD0ED030A20EE200AD0ED0A
:101CA000000A90ED021A00EEC10AF0EE000A20EEE2
:101CB000200A9F4880ED000AA14890ED000AD0ED6F
:101CC000010A20EE200AD0ED020A90ED031A00EE80
:101CD000810AF0EE000A20EE200A954880ED010A04
:101CE000974890ED010A20EE000AD0ED020A90ED2F
:101CF000021A00EE810AF7EE000AB0EE001A41EE79
:101D0000400A8B48C0ED020A8E48007800285ED059
:101D10008C48007802280CD19FED8B0A8B4880ED0F
:101D2000000A9FED890A80ED010A9FED870A80ED88
:101D3000020A864890ED000A7D4890ED001ADFED1A
:101D4000841AF0EE690A41EEC10A9FED821A60EE34
:101D5000810A9FED811A00EE810A7C4880ED000A1D
:101D600090ED010A724890ED011ADFED791AF0EE5C
:101D7000490A41EEC10A9FED771A60EE810A9FED94
:101D8000761A00EE810A714880ED010A90ED020A90
:101D9000674890ED021ADFED6E1AF0EE680A41EE28
:101DA000C10A9FED6C1A60EE810A9FED6B1A00EE7E
:101DB000810A664880ED020A62480078401C614949
:101DC000087008460078522801DB002008705F4840
:101DD00090ED000A564890ED001ADFED5D1AF0EE26
:101DE000690A41EEC10A9FED5B1A11EE200A5B48B9
:101DF00080ED000A554890ED010A4D4890ED011A1A
:101E0000DFED531AF0EE490A41EEC10A9FED511A77
:101E100011EE200A514880ED010A4C4890ED020A6B
:101E2000434890ED021ADFED4A1AF0EE680A41EEDF
:101E3000C10A9FED481A11EE200A484880ED020AB7
:101E400090ED000A3A48D0ED000A20EE200A4348FF
:101E5000D0ED010A364890ED011A00EE810A3F48A4
:101E6000D0ED020A324890ED021A00EE810A3C4899
:101E700080ED020A69EEA90A49EE090A48EEA80AAD
:101E8000B0EE600A00F0B4FF364880ED000AF5EECF
:101E9000C09AF1EE10FA02DDB0EE690A01E0B1EE8F
:101EA000690ADFED310AB4EEE00AF1EE10FA7DD2F4
:101EB000B5EEC09AF1EE10FA02DDB0EE490A01E08B
:101EC000B1EE490ADFED280AB4EEE00AF1EE10FAAD
:101ED0006CD2F5EEC08AF1EE10FA02DDB0EE680ABF
:101EE00001E0B1EE680ADFED200AB4EEE00AF1EE9F
:101EF00010FA5BD21B4890ED000AC9EE800AF0EEA2
:101F0000609A90ED000AC9EE000AB0EE609A90ED7A
:101F1000000AC8EE800AF0EE608A27E0C3F5C840E8
:101F2000C005002048000020102B0020E02A0020DF
:101F3000982A0020440000203333654260000020CE
:101F4000280000204C00002000000000042B00208E
:101F5000000080455C201940CDCC4C3CF82A002084
:101F6000EC2A0020380000200080894590ED000A0E
:101F7000DFEDFE0AB4EEE00AF1EE10FA54DD90ED6A
:101F8000000A5FED070AB4EEE00AF1EE10FA4BD258
:101F9000F74890ED020A20EE090AD0ED010A08EE9A
:101FA000E00AF44880ED030AF14800E033E090EDE8
:101FB000000A20EE280AD0ED020A09EEE00AED48F8
:101FC00080ED040A1FED2B0A28EE000AF7EE000A46
:101FD00020EE20AA90ED030AD0ED060A70EE600A0A
:101FE00090ED060A0AEE200A80ED060A90ED040A3A
:101FF000D0ED070A70EE600A90ED070A0AEE200A9B
:1020000080ED070A90ED060A80ED000A90ED070AC0
:1020100080ED010A08E01FED340AD64880ED000A81
:102020001FED370A80ED010AD24890ED090AD0ED84
:10203000000A1FED3B1A60EE810AB0EE001A60EE56
:10204000810A00EE880A80ED090A90ED0A0AD0EDB7
:10205000010A1FED431A60EE810AB0EE001A60EE2D
:10206000810A00EE880A80ED0A0A90ED0B0AD0ED95
:10207000020A1FED4B1A60EE810AB0EE001A60EE04
:10208000810A00EE880A80ED0B0A90ED090ADFED67
:10209000BA0AB4EEE00AF1EE10FA02D29FEDB60AE7
:1020A0000FE0B44890ED090ADFEDB40AB4EEE00A9F
:1020B000F1EE10FA02DD9FEDB10A02E0AD4890EDBD
:1020C000090AAC4880ED090A90ED0A0ADFEDAA0A78
:1020D000B4EEE00AF1EE10FA02D29FEDA70A0FE08B
:1020E000A44890ED0A0ADFEDA50AB4EEE00AF1EE8D
:1020F00010FA02DD9FEDA10A02E09E4890ED0A0A67
:102100009C4880ED0A0A90ED0B0ADFED9B0AB4EEC5
:10211000E00AF1EE10FA02D29FED970A0FE095481F
:1021200090ED0B0ADFED950AB4EEE00AF1EE10FA3D
:1021300002DD9FED920A02E08E4890ED0B0A8D4879
:1021400080ED0B0A8A4890ED020AB5EEC00AF1EE66
:1021500010FA2ADD8A48007898B18A48D0ED000A42
:10216000894890ED001A70EEC10AB0EE600A01F0E5
:102170003DF8DFED860A20EE200A854880ED000A52
:1021800018E08048D0ED000A7F4890ED001A70EE0C
:10219000C10AB0EE600A01F029F8DFED7E0A20EEF8
:1021A000200A7B4880ED000A04E01FED990A784878
:1021B00080ED000A6F4890ED000AD0ED090A30EE7C
:1021C000200ADFED750A20EE200A694890ED001A1A
:1021D0006F48D0ED001AF0EE4E0A41EE610A9FED15
:1021E0006F1A00EE810A634880ED0C0A90ED010A37
:1021F000D0ED0A0A30EE200ADFED670A20EE200A51
:102200005B4890ED011A6248D0ED001AF0EE6E0ABC
:1022100041EE610A9FED611A00EE810A554880ED9A
:102220000D0A5348D0ED020A594890ED001AB0EE5D
:102230004F0A00EEC10ADFED590A20EE200A4D4890
:1022400080ED0E0A564890ED010AB1EE400A494869
:10225000D0ED0C0A20EE200A5148D0ED020A454884
:1022600090ED0D1A00EEC10A4D48D0ED030A414829
:1022700090ED0E1A00EEC10A4948D0ED000A40EE7A
:10228000080AC0ED000A90ED000A3A48D0ED0C0AA9
:1022900020EE200A4248D0ED020A364890ED0E1A90
:1022A00000EE810A3E48D0ED030A324890ED0D1A47
:1022B00000EEC10A3A48D0ED010A40EE080AC0ED2E
:1022C000010A90ED000A2B48D0ED0D0A20EE200AFD
:1022D0003348D0ED010A274890ED0E1A00EEC10AEE
:1022E0002F48D0ED030A234890ED0C1A00EE810A26
:1022F0002B48D0ED020A40EE080AC0ED020A90ED2C
:10230000000A1C48D0ED0E0A20EE200A2448D0ED29
:10231000010A184890ED0D1A00EE810A2048D0ED10
:10232000020A144890ED0C1A00EEC10A1C48D0EDC8
:10233000030A40EE080AC0ED030AD0ED000A60EE81
:10234000A00A90ED011AD0ED011A41EE210A90ED9C
:10235000021AD0ED021A41EE210A90ED031AD0EDD7
:10236000031A41EE210AB0EE600A1BE000806D45C1
:10237000982A0020A42A002034FA0EBD34FA0E3D1B
:10238000D4040020600000202400002090C2753D8D
:102390005C0000206766E63E9A99993E34FA8E3CCE
:1023A0002800002000F024FDFE4880ED000AFE48D1
:1023B00090ED000AFB48D0ED000A80EE201AFA48A2
:1023C00080ED001A90ED010AF648D0ED000A80EE8B
:1023D000201AF54880ED011A90ED020AF148D0ED7F
:1023E000000A80EE201AF04880ED021A90ED030AF0
:1023F000EC48D0ED000A80EE201AEB4880ED031A7D
:1024000090ED011A21EE011AD0ED021A90ED022A88
:1024100001EE821AF7EE001AB0EE002A42EE411ADF
:10242000F0EE610A90ED001AD0ED011A21EE211AAA
:10243000D0ED021A90ED032A01EE821AF0EE001A96
:1024400021EE211AB0EE410A00F017FCDFEDD70AA9
:1024500020EE200A84ED000AD34890ED010AD0ED69
:10246000030A20EE200AD0ED000A90ED021A00EED9
:10247000C10AF0EE000A20EE200A10EE101A0846FB
:102480000FF0E7FA41EC1D0BB0EE4D0AF0EE6D0ACD
:102490000FF01AFDB0EE40CAF0EE60CA9FEDC40B1B
:1024A00053EC102B51EC1C0B0FF050FA41EC1B0BB2
:1024B0000FF012FB2860BC4890ED001A21EE011AC3
:1024C000D0ED011A90ED012A01EE821AF7EE001A02
:1024D000B0EE002A52EE011AF0EE610A90ED011AF8
:1024E000B1EE411AD0ED021A21EE211AD0ED001AF8
:1024F00090ED032A01EEC21AF0EE001A21EE211A25
:10250000B0EE410A00F0B9FBDFEDA80A20EE200A88
:1025100086ED000ABDEC108B70BDF0EE400AF6EEC1
:10252000001A60EEA11AB0EE611AB0EE600A10EE69
:10253000100AA149A1EB600000EE100A21EE002A6A
:10254000F7EE081A42EE401A61EE801AB0EE610A08
:10255000704770B52DED108B9EB0F0EE408AB0EE56
:1025600060AAF0EE41AAB0EE61BAB0EE42DAB0EE87
:1025700062CAF0EE43CA04460D4616468A4890EDFC
:10258000000A20EE000A8DED0C0A90ED000AD0ED55
:10259000010A20EE200A8DED0B0A90ED000AD0ED25
:1025A000020A20EE200AF0EE40DA90ED000AD0EDAB
:1025B000030A20EE200A8DED0A0A90ED010A20EEB2
:1025C000000A8DED090A90ED010AD0ED020A20EE15
:1025D000200A8DED080A90ED010AD0ED030A20EEE5
:1025E000200AB0EE40EA90ED020A20EE000AF0EE7A
:1025F00040EA90ED020AD0ED030A20EE200A8DEDAC
:10260000070A90ED030A20EE000A8DED060A1FED81
:102610009D0A2AEE000AB0EE40AA1FEDA00A2AEE9B
:10262000800AF0EE40AA1FEDA30A2BEE000AB0EEDE
:1026300040BA624890ED080AF0EE40BA90ED090AFF
:10264000B0EE409A90ED0A0AF0EE409A6DEE0D0A57
:102650004CEE0C0A4CEEAC0AB0EE600AFFF75DFFE0
:10266000B0EE408A2DEE080AB0EE40DA2CEE080AF1
:10267000B0EE40CA2CEE880AF0EE40CA6BEEAB0A10
:1026800049EE090A49EEA90AB0EE600AFFF745FFD4
:10269000B0EE408A2BEE880AF0EE40BA29EE080A26
:1026A000B0EE409A29EE880AF0EE409AB0EE000AA9
:1026B0006BEE800AB6EE000A30EE6E1A9DED060A49
:1026C00031EE400A20EE800AF0EE000A69EE201A90
:1026D000DDED080A9DED0A1A70EEC10A01EEA00AAE
:1026E000F0EE000A69EEA00A3EEE2D1A00EE810A15
:1026F0008DED1C0AB0EE000A2BEE801A9DED080A43
:10270000DDED0A0A30EE200A21EE000AF0EE000AA2
:1027100029EE201ADDED090AF6EE001A71EEE01A34
:10272000DDED060A71EEE00A01EE200AF0EE000A85
:1027300069EEA01ADDED070A9DED0B1A70EEC10AD5
:1027400001EEA00A8DED1B0AB0EE000A2BEE800A06
:102750007EEE6D0A20EE200AF0EE000A69EE201AE5
:10276000DDED070A9DED0B1A70EE810A01EEA00A5D
:10277000F0EE000A29EEA01ADDED090AF6EE001AC5
:1027800071EEE00A70EEEE0A01EE200AB0EE40FAB9
:102790009DED1C0A60EE000A9DED1B0A40EE000A4A
:1027A0000EE000003C00002028000020333365428A
:1027B0000000006066A64C40DF59375FC00500206E
:1027C00010EE901A08460FF044F9CDE902019DED94
:1027D000020B0FF029FD8DED040B9DED040B51EC68
:1027E000100B0FF079F91A908DED19FA3EEE6D0A83
:1027F000F0EE000A20EE200A8DED180A9DED0B0A7E
:10280000DDED070A30EE200AF0EE000A20EE200A85
:102810008DED170A9DED0C0ADDED090A30EE600A18
:1028200070EE6E0A9DED060A30EE800A8DED160AF6
:102830009DED1A0AF0EE000A60EE200AB6EE000ADC
:1028400030EE6E1A9DED060A31EE400A20EE800A47
:102850009DED19FAF0EE000A6FEE200A3EEE6D1AB9
:1028600000EE810A8DED150A9DED1A0AF0EE000AC0
:1028700020EE201A9DED080ADDED0A0A30EE600A0E
:1028800021EE000A9DED19FAF0EE000A6FEE201A13
:10289000DDED0B0A9DED071A70EE810A01EEA00A2C
:1028A0008DED140A9DED1A0AF0EE000A20EE200AC2
:1028B0007DEE8E0A20EE200A9DED19FAF0EE000A58
:1028C0002FEE201ADDED090AF6EE001A71EEE00A8D
:1028D00070EEEE0A01EE200A8DED130A9DED160A48
:1028E0002CEE000ADDED170A0CEEE00ADDED130A0E
:1028F00029EE201ADDED140A09EEE01A30EE010A85
:102900008DED120A9DED180A6CEE800A9DED160AF7
:102910004DEE400A9DED150A29EE801A9DED130A31
:102920000BEEC01A30EE810A8DED110A9DED170AEB
:102930002DEE000ADDED180A0CEE600ADDED140A3A
:102940002BEEA01ADDED150A09EE601A30EE010A31
:102950008DED100A9DED120AB5EEC00AF1EE10FAE7
:1029600061D09DED110AB5EEC00AF1EE10FA5AD011
:102970009DED100AB5EEC00AF1EE10FA53D09DEDB0
:10298000120ADFEDAF0A60EE200AAE4890ED000AB1
:1029900000EEA80A80ED000A9DED110ADFEDA80AFD
:1029A00060EE200AA84890ED000A00EEA80A80ED2B
:1029B000000A9DED100ADFEDA20A60EE200AA3488E
:1029C00090ED000A00EEA80A80ED000A9DED120AC3
:1029D000B0EE001AF0EE4A0A41EE000A994890ED76
:1029E000000A30EE800AB0EE40AA9DED110AB0EE6A
:1029F000001AF0EE6A0A41EE000A934890ED000AD0
:102A000030EE800AF0EE40AA9DED100AB0EE001AFA
:102A1000F0EE4B0A41EE000A8C4890ED000A30EED1
:102A2000800AB0EE40BA8A4890ED010AB1EE400A41
:102A300020EE0A0AD0ED020A00EEEA0A90ED031A2F
:102A4000F0EE400A41EE4B0A90ED000A00EEA80AB3
:102A50008DED0F0A90ED000A20EE0A0AD0ED020A71
:102A600000EE8B0AD0ED030A00EEEA0AD0ED010A6F
:102A7000F0EE60FA40EE28FA90ED000A20EE2A0A05
:102A8000D0ED010A00EECB0A90ED031AF0EE400AF9
:102A900041EE0A0A90ED020A00EEA80A8DED0E0A38
:102AA00090ED000A20EE0B0AD0ED010A00EEAA0A12
:102AB00090ED021AF0EE400A41EE4A0A90ED030A48
:102AC00000EEA80A8DED0D0ADDED0F0A20EEA01A2A
:102AD0000FEEAF1ADDED0E0A00EEA01ADDED0D0AC5
:102AE00000EEA01AB0EE410AFFF717FDB0EE408AE3
:102AF0009DED0F0A20EE080A554880ED000A2FEEE2
:102B0000880A80ED010A9DED0E0A20EE080A80ED8C
:102B1000020A9DED0D0A20EE080A80ED030A90EDF1
:102B2000011A21EE011AD0ED021A90ED022A01EEEF
:102B3000821AF7EE001AB0EE002A42EE411AF0EEC9
:102B4000610A90ED001AD0ED011A21EE211AD0EDA4
:102B5000021A90ED032A01EE821AF0EE001A21EE1D
:102B6000211AB0EE410A00F088F85FEDF00A20EE7D
:102B7000200A84ED000A364890ED010AD0ED030AE0
:102B800020EE200AD0ED000A90ED021A00EEC10AF4
:102B9000F0EE000A20EE200A10EE101A08460EF0A1
:102BA00058FFCDE900019DED000B0FF08DF98DED83
:102BB000020B9FED280B53EC102B9DED020B51ECFB
:102BC000100B0EF0C3FECDE904019DED040B51EC9A
:102BD000100B0EF081FF28601D4890ED001A21EEC9
:102BE000011AD0ED011A90ED012A01EE821AF7EEDA
:102BF000001AB0EE002A52EE011AF0EE610A90EDD2
:102C0000011AB1EE411AD0ED021A21EE211AD0EDCF
:102C1000001A90ED032A01EEC21AF0EE001A21EE1E
:102C2000211AB0EE410A00F028F8DFED0C0A20EE80
:102C3000200A86ED000A1EB0BDEC108B70BD0000AE
:102C4000CDCCCC3D50000020540000205800002086
:102C5000280000200000006066A64C403333654227
:102C6000F0EE400AF5EEC00AF1EE10FA02DBB0EE2B
:102C7000600A7047B1EE600AFBE700B5B0EE403A7B
:102C8000B0EE602AB5EEC03AF1EE10FA04D0B5EE1F
:102C9000C02AF1EE10FA02D19FEDFB1A99E0B0EED6
:102CA000430AFFF7DDFFF0EE403AB0EE420AFFF7CD
:102CB000D7FFF0EE402AF4EEE23AF1EE10FA02D23B
:102CC00083EEA24A01E082EEA34A9FEDF00AB4EE41
:102CD000C04AF1EE10FA02D2F0EE441A2DE0DFED18
:102CE000EC0AB6EE000A14EE200AF0EE404ABDEE01
:102CF000E40A10EE100A00EE100AB8EEC00A34EE34
:102D0000C00AF0EE404AE34901EB800191ED000A70
:102D1000F0EE401ADF4A411C02EB810191ED000AFE
:102D2000114601EB8001D1ED000A70EE600AB0EEB1
:102D3000610A00EEA40AF0EE401AF4EEE32AF1EE86
:102D400010FA20DDB5EEC02AF1EE10FA0ADBB5EE7E
:102D5000C03AF1EE10FA02DBB0EE611A39E0B1EEE2
:102D6000611A36E09FEDCC1AB5EEC03AF1EE10FADA
:102D700004DB31EE610AB0EE401A2AE031EEC10AFE
:102D8000B0EE401A25E0B5EEC03AF1EE10FA10DBD5
:102D90009FEDC21AB5EEC02AF1EE10FA04DB31EE57
:102DA000610AB0EE401A14E031EE210AB0EE401A8A
:102DB0000FE09FEDBB1AB5EEC02AF1EE10FA04DB6E
:102DC00031EE210AB0EE401A03E031EE610AB0EEB6
:102DD000401AB0EE410A00BD00B5B0EE405AF0EE28
:102DE000605AF0EE450AB0EE650AFFF746FF00BDF7
:102DF000B0EE401AB7EE080AB0EE402AB6EE000A6E
:102E000021EE000AF0EE401AF0EE410A10EE900AB0
:102E1000A449A1EB600000EE900A61EEA02AB7EE93
:102E2000080A02EEE00A20EE200AF0EE400A61EE07
:102E3000A02AB7EE080A02EEE00A20EE200AF0EE21
:102E4000400A21EE200A704710B52DED0A8BB0EE36
:102E5000409AF0EE609A9FED940B53EC102B51ECDE
:102E6000190B0EF009FE18D29FED910B53EC102BAD
:102E700051EC190B0EF06AFD41EC1B0B9FED8E0B14
:102E800053EC102B0EF0BBFC41EC1A0B53EC192B3E
:102E90000EF05CFD41EC180B17E09FED850B53EC39
:102EA000102B51EC190B0EF051FD41EC1B0B9FED5B
:102EB000820B53EC102B0EF046FD41EC1A0B53EC39
:102EC000192B0EF043FD41EC180B9FED770B53ECE3
:102ED000102B51EC180B0EF0CFFD20D29FED780B8C
:102EE00053EC102B51EC180B0EF089FC41EC1C0B31
:102EF0009FED750B53EC102B0EF028FD41EC1B0BD6
:102F00009FED6F0B53EC102B0EF079FC41EC1A0B7C
:102F100053EC182B0EF01AFD41EC180B1FE09FED3F
:102F2000680B53EC102B51EC180B0EF009FD41EC23
:102F30001C0B9FED670B53EC102B0EF007FD41ECC3
:102F40001B0B9FED5F0B53EC102B0EF058FC41EC6C
:102F50001A0B53EC182B0EF0F9FC41EC180BB0EEE9
:102F6000480AF0EE680ABDEC0A8B10BD10B52DEDD5
:102F7000068BB0EE408AF0EE608A01249FED560B7E
:102F800053EC102B51EC180B0EF08EFD0AD89FED70
:102F9000520B53EC102B51EC180B0EF0D1FC41EC02
:102FA000180BA41E20460EF043FD41EC190BB0EEA9
:102FB000480AF0EE680AFFF747FFB0EE40AAF0EECD
:102FC00060AA53EC192B51EC1A0B0EF0BFFC41EC2C
:102FD000100BBDEC068B10BD10B52DED088BB0EEBF
:102FE000408AF0EE608A01249FED3D0B53EC102BDC
:102FF00051EC180B0EF003FC41EC180B9FED360B57
:1030000053EC102B51EC180B0EF04EFD0AD8A41EF9
:103010009FED310B53EC102B51EC180B0EF090FC84
:1030200041EC180B20460EF003FD41EC1A0BB0EEFC
:10303000480AF0EE680AFFF799FFB0EE40BAF0EEEA
:1030400060BA53EC1A2B51EC1B0B0EF07FFC41ECD9
:10305000190B0EF041FD00EE100ABDEC088B10BDFF
:10306000B0EE401AB5EEC01AF1EE10FA3CDD31EECA
:10307000600AB5EEC00AF1EE10FA37D2DFED021A9F
:10308000B0EE610A32E00000000000008180803B69
:103090000000804364000020DB0F4940DB0FC93F84
:1030A000DB0FC9BFDF59375F0000000000000000E0
:1030B000000000602FF0D93F00000060305FF43F57
:1030C000000000000000F03F000000C0CCCCCCBFEE
:1030D000000000C0CCCCCC3FF1D4C853FB21094048
:1030E000F1D4C853FB21F93FB0EE410A7047B0EE6E
:1030F000401AB5EEC01AF1EE10FA0BD231EE200AEA
:10310000B5EEC00AF1EE10FA06DD5FED211AB0EE61
:10311000610A01E0B0EE410A7047F0EE401AF4EEA9
:10312000E01AF1EE10FA09DD31EEC10AB4EEE00A60
:10313000F1EE10FA0BD2B0EE600A08E031EE810A2F
:10314000B4EEE00AF1EE10FA01DDB0EE600A70476D
:10315000F0EE401AB1EE412A32EE202AB4EEE12A16
:10316000F1EE10FA09D231EE202AB4EEE12AF1EEA6
:1031700010FA02DDB0EE600A01E0B0EE610A7047BD
:1031800010B52DED028BB0EE408AF0EE608A9FED17
:10319000730B53EC102B51EC180B0EF085FC0CD27A
:1031A0009FED700B53EC102B51EC180B0EF0C8FB7D
:1031B00041EC100BBDEC028B10BD9FED6C0B53EC82
:1031C000102B51EC180B0EF057FC0AD29FED650B3B
:1031D00053EC102B51EC180B0EF011FB41EC100BC3
:1031E000E8E7B0EE480AF0EE680AE3E7F0EE400ADE
:1031F0009FED600AF4EEC00AF1EE10FA04DD9FEDD7
:103200005E0A30EEC00A70479FED5C0AF4EEC00A19
:10321000F1EE10FA04D29FED580A30EE800AF2E780
:10322000B0EE600AEFE7F0EE400AF5EEC00AF1EE0C
:1032300010FA02DDB0EE600A01E0B1EE600A90ED36
:10324000041AB4EEC10AF1EE10FA0CDDF5EEC00A74
:10325000F1EE10FA04D291ED040AB1EE400A704783
:1032600091ED040AFBE7F5EEC00AF1EE10FA02DD7B
:10327000B0EE600A01E0B1EE600A90ED031AB4EE20
:10328000C10AF1EE10FA0CDDF5EEC00AF1EE10FA0B
:1032900004D291ED030AB1EE400AE0E791ED030A92
:1032A000DDE7F5EEC00AF1EE10FA02DDB0EE600ADD
:1032B00001E0B1EE600A90ED021AB4EEC10AF1EE3F
:1032C00010FA0CDDF5EEC00AF1EE10FA04D291ED21
:1032D000020AB1EE400AC2E791ED020ABFE7F5EE3D
:1032E000C00AF1EE10FA02DDB0EE600A01E0B1EEC4
:1032F000600A90ED011AB4EEC10AF1EE10FA0CDD8D
:10330000F5EEC00AF1EE10FA04D291ED010AB1EE29
:10331000400AA4E791ED010AA1E7F5EEC00AF1EE3B
:1033200010FA02DDB0EE600A01E0B1EE600A90ED45
:10333000001AB4EEC10AF1EE10FA0CDDF5EEC00A87
:10334000F1EE10FA04D291ED000AB1EE400A86E7E0
:1033500091ED000A83E71FEDB40A80E7000000004A
:103360000080664000000000008076400000000001
:10337000008066C0000034430000B443000034C342
:1033800070B505460C462146FE4806F000F970BDB2
:1033900070B504460D46AA20FA4908704870EF201F
:1033A00088700220C870084604714571002600200C
:1033B00005E0F449095C3144CEB2411CC8B206288C
:1033C000F7DBF04886710721FFF7DAFF70BD70B5B3
:1033D00004460D46AA20EB4908704870EE2088701C
:1033E0000220C8700846047145710026002005E0DF
:1033F000E449095C3144CEB2411CC8B20628F7DB6F
:10340000E04886710721FFF7BBFF70BD2DE9F0434F
:103410002DED028B83B005460E4617469846B0EE5A
:10342000408A0024AA222146641CD64842542146E0
:10343000641C425404222146641C4254002221464A
:10344000641C42542146641C45542146641C465465
:1034500001979DF807202146641C42549DF80620E0
:103460002046611CCCB2C7490A549DF8052020466D
:10347000611CCCB2C3490A549DF804202046611C4B
:10348000CCB2C0490A54CDF804809DF807202046EC
:10349000611CCCB2BB490A549DF806202046611C31
:1034A000CCB2B8490A549DF805202046611CCCB224
:1034B000B4490A549DF804202046611CCCB2B1499D
:1034C0000A549FEDB10A28EE000ABDEEC00A10EEC4
:1034D000100A00B202909DF809202046611CCCB26F
:1034E000A8490A549DF808202046611CCCB2A54981
:1034F0000A54201FC8704FF00009002006E0A149BF
:10350000095C494401F0FF09411CC8B2A042F6DB46
:103510002046611CCCB29B4901F800902146994895
:10352000FFF72EFF03B0BDEC028BBDE8F08370B552
:103530002DED0A8B82B00546B0EE408AF0EE608A2F
:10354000B0EE419AF0EE619AB0EE42AAF0EE62AAB5
:10355000B0EE43BAF0EE63BAB0EE44CA0024AA2239
:103560002146641C874842542146641C425405F19C
:103570000F00C2B22146641C8248425400222146F8
:10358000641C42549FED810A28EE000ABDEEC00A79
:1035900010EE100A00B201909DF805202146641C2F
:1035A000784842549DF804202146641C42549FED03
:1035B000770A28EE800ABDEEC00A10EE100A00B2AB
:1035C00001909DF805202146641C6E4842549DF8E8
:1035D00004202046611CCCB26A490A549FED6B0A54
:1035E00029EE000ABDEEC00A10EE100A00B20190EA
:1035F0009DF805202046611CCCB262490A549DF812
:1036000004202046611CCCB25E490A549FED5F0A3B
:1036100029EE800ABDEEC00A10EE100A00B2019039
:103620009DF805202046611CCCB256490A549DF8ED
:1036300004202046611CCCB252490A549FED530A23
:103640002AEE000ABDEEC00A10EE100A00B2019088
:103650009DF805202046611CCCB24A490A549DF8C9
:1036600004202046611CCCB246490A549FED470A0B
:103670002AEE800ABDEEC00A10EE100A00B20190D8
:103680009DF805202046611CCCB23E490A549DF8A5
:1036900004202046611CCCB23A490A549FED3B0AF3
:1036A0002BEE000ABDEEC00A10EE100A00B2019027
:1036B0009DF805202046611CCCB232490A549DF881
:1036C00004202046611CCCB22E490A549FED2F0ADB
:1036D0002BEE800ABDEEC00A10EE100A00B2019077
:1036E0009DF805202046611CCCB226490A549DF85D
:1036F00004202046611CCCB222490A549FED230AC3
:103700002CEE000ABDEEC00A10EE100A00B20190C5
:103710009DF805202046611CCCB21A490A549DF838
:1037200004202046611CCCB216490A54201FC870E0
:103730000026002005E01349095C3144CEB2411C4B
:10374000C8B2A042F7DB2046611CCCB20D490E5432
:1037500021460C48FFF714FE02B0BDEC0A8B70BD89
:10376000F8B505460E460024AA222146641C0548E9
:1037700042542146641C425405222146641C425492
:10378000002205E0302B00200000C84200007A44EF
:103790002146641C425400959DF801202146641C7A
:1037A00042549DF800202146641C425400969DF826
:1037B00001202146641C42549DF800202146601CD3
:1037C000C4B2FE484254201FFC49C87000270020A4
:1037D00005E0FA49095C3944CFB2411CC8B2A042A5
:1037E000F7DB2046611CCCB2F4490F542146F34864
:1037F000FFF7C6FDF8BD7FB50024AA222146641C50
:10380000EE4842542146641C425406222146641C60
:10381000425400222146641C42549DF80120214656
:10382000641C42549DF800202146641C42549DF8BB
:1038300005202146641C42549DF804202046611C4A
:10384000CCB2DE490A549DF809202046611CCCB256
:10385000DA490A549DF808202046611CCCB2D749A9
:103860000A549DF80D202046611CCCB2D3490A545D
:103870009DF80C202146601CC4B2D04842549DF8EB
:1038800021202046611CCCB2CC490A549DF820204E
:103890002046611CCCB2C9490A549DF82520204617
:1038A000611CCCB2C5490A549DF824202046611CF5
:1038B000CCB2C2490A549DF829202046611CCCB2E2
:1038C000BE490A549DF828202046611CCCB2BB4951
:1038D0000A549DF82D202046611CCCB2B7490A54E9
:1038E0009DF82C202046611CCCB2B4490A54201FFC
:1038F000C8700025002005E0B049095C2944CDB21C
:10390000411CC8B2A042F7DB2046611CCCB2AB49D7
:103910000D542146A948FFF733FD7FBD7FB5002434
:10392000AA222146641CA54842542146641C4254E4
:1039300003222146641C425400222146641C425446
:103940009DF801202146641C42549DF80020214628
:10395000641C42549DF805202146641C42549DF885
:1039600004202046611CCCB294490A549DF80920D9
:103970002046611CCCB291490A549DF8082020468B
:10398000611CCCB28D490A549DF80D202046611C63
:10399000CCB28A490A549DF80C202046611CCCB256
:1039A00086490A549DF821202046611CCCB28349E7
:1039B0000A549DF820202146601CC4B27F4842541E
:1039C0009DF825202046611CCCB27C490A549DF804
:1039D00024202046611CCCB278490A549DF8292045
:1039E0002046611CCCB275490A549DF82820204617
:1039F000611CCCB271490A549DF82D202046611CEF
:103A0000CCB26E490A549DF82C202046611CCCB2E1
:103A10006A490A549DF831202046611CCCB267499E
:103A20000A549DF830202046611CCCB263490A54E8
:103A30009DF835202046611CCCB260490A549DF89F
:103A400034202046611CCCB25C490A54201FC87047
:103A50000025002005E05949095C2944CDB2411CEC
:103A6000C8B2A042F7DB2046611CCCB253490D54CA
:103A700021465248FFF784FC7FBD73B50024AA227B
:103A80002146641C4D4842542146641C425407227E
:103A90002146641C425400222146641C42549DF875
:103AA00003202146641C42549DF802202146641CD8
:103AB00042549DF801202146641C42549DF8002088
:103AC0002046611CCCB23D490A549DF80520204691
:103AD000611CCCB239490A549DF804202046611C6F
:103AE000CCB236490A54201FC8700025002005E0DA
:103AF0003249095C2944CDB2411CC8B2A042F7DB6F
:103B00002046611CCCB22D490D5421462B48FFF7AD
:103B100037FC7CBD2DE9F84F05460E461746984602
:103B2000DDE90AAB0024AA222146641C2348425442
:103B30002146641C425402222146641C4254002245
:103B40002146641C425400959DF801202146641CC6
:103B500042549DF800202146641C425400969DF872
:103B600001202146641C42549DF800202146601C1F
:103B7000C4B21248425400979DF801202046611CAF
:103B8000CCB20E490A549DF800202046611CCCB2EC
:103B90000A490A54CDF800809DF801202046611C96
:103BA000CCB206490A549DF800202046611CCCB2D4
:103BB00002490A54CDF800A002E00000302B00209A
:103BC0009DF801202046611CCCB2FE490A549DF8A4
:103BD00000202046611CCCB2FA490A54CDF800B04E
:103BE0009DF801202146601CC4B2F64842549DF85D
:103BF00000202146601CC4B2F24842540C98009048
:103C00009DF801202046611CCCB2EE490A549DF873
:103C100000202046611CCCB2EA490A540D9800905D
:103C20009DF801202046611CCCB2E6490A549DF85B
:103C300000202046611CCCB2E2490A540E98009044
:103C40009DF801202046611CCCB2DE490A549DF843
:103C500000202046611CCCB2DA490A5400200090B2
:103C60009DF801202046611CCCB2D6490A549DF82B
:103C700000202046611CCCB2D2490A54201FC870D3
:103C80004FF00009002006E0CE49095C494401F0EC
:103C9000FF09411CC8B2A042F6DB2046611CCCB231
:103CA000C84901F800902146C648FFF769FBBDE806
:103CB000F88F2DE9FF412DED040B2DED048B82B023
:103CC000B0EE408AF0EE608AB0EE419A05460E46AC
:103CD000174600240095AA222146641CB948425484
:103CE0002146641C425401222146641C4254002295
:103CF0002146641C42549FEDB40A28EE000ABDEE32
:103D0000C00A10EE100A00B201909DF8052021466D
:103D1000641CAC4842549DF804202146641C425463
:103D20009FEDA90A28EE800ABDEEC00A10EE100A27
:103D300000B201909DF805202146641CA148425420
:103D40009DF804202046611CCCB29E490A549FED88
:103D50009E0A29EE000ABDEEC00A10EE100A00B25B
:103D600001909DF805202146601CC4B2954842543C
:103D70009DF804202046611CCCB292490A549DF85B
:103D800003202046611CCCB28E490A549DF80220C3
:103D90002146601CC4B28B4842549DF80120204645
:103DA000611CCCB287490A549DF800202046611C52
:103DB000CCB284490A542046611CCCB281490E54CD
:103DC0002046611CCCB27F490F549DF83520204617
:103DD000611CCCB27B490A549DF834202046611CFA
:103DE000CCB278490A54201FC8704FF00008002058
:103DF00006E07449095C414401F0FF08411CC8B267
:103E0000A042F6DB2046611CCCB26E4901F800806E
:103E100021466C4805F089FD02B0BDEC048B08B06A
:103E2000BDE8F0812DE9F0412DED048B82B0B0EEBC
:103E3000408AF0EE608AB0EE419A05460E4617467B
:103E400000240095AA222146641C5E484254214663
:103E5000641C425401222146641C42540022214623
:103E6000641C42549FED580A28EE000ABDEEC00AB9
:103E700010EE100A00B201909DF805202146641C46
:103E8000504842549DF804202146641C42549FED42
:103E90004E0A28EE800ABDEEC00A10EE100A00B2EB
:103EA00001909DF805202146641C464842549DF827
:103EB00004202046611CCCB242490A549FED420ABC
:103EC00029EE000ABDEEC00A10EE100A00B2019001
:103ED0009DF805202046611CCCB23A490A549DF851
:103EE00004202046611CCCB236490A549DF80320B8
:103EF0002046611CCCB233490A549DF8022020466A
:103F0000611CCCB22F490A549DF801202046611C47
:103F1000CCB22C490A549DF800202146601CC4B242
:103F2000284842542046611CCCB226490E542046F3
:103F3000611CCCB223490F54201FC8704FF00008F9
:103F4000002006E01F49095C414401F0FF08411CC4
:103F5000C8B2A042F6DB2046611CCCB2194901F878
:103F6000008021461748FFF70BFA02B0BDEC048B26
:103F7000BDE8F0817FB505460024AA222146641CD5
:103F8000104842542146641C425400222146641CBD
:103F900042542146641C42542146641C45549DF8F9
:103FA00005202146641C42549DF804202146641CCF
:103FB00042549DF809202046611CCCB201490A54A4
:103FC00004E00000302B00200000C8429DF80820CB
:103FD0002046611CCCB2FE490A549DF80D202046B3
:103FE000611CCCB2FA490A549DF80C202046611C91
:103FF000CCB2F7490A549DF821202046611CCCB26E
:10400000F3490A549DF820202046611CCCB2F049A7
:104010000A54201FC8700026002005E0EC49095C06
:104020003144CEB2411CC8B2A042F7DB2046611C2D
:10403000CCB2E7490E542146E548FFF7A1F97FBD10
:1040400010B586B0E3480078E349097890FBF1F2B7
:1040500001FB1201E0480078401E814202D101209C
:10406000DE494871DB480078DD49097890FBF1F2C0
:1040700001FB1201DA480078401E814202D1012082
:10408000D6498871D3480078D649097890FBF1F277
:1040900001FB1201D3480078801E814202D1012029
:1040A000CE494874CB480078CF49097890FBF1F2AB
:1040B00001FB1201CC480078401E814202D1012050
:1040C000C6490871C3480078C849097890FBF1F2E5
:1040D00001FB1201C5480078401E814202D1012037
:1040E000BE494873BB480078C149097890FBF1F29A
:1040F00001FB1201BE480078801E814202D10120DE
:10410000B649C873B3480078BA49097890FBF1F210
:1041100001FB1201B7480078801E814202D10120C4
:10412000AE490874AB480078B349097890FBF1F2C6
:1041300001FB1201B0480078C01E814202D101206B
:10414000A6498874A3480078AC49097890FBF1F23D
:1041500001FB1201A9480078C01E814204D19F488A
:10416000C07C401C9D49C8749A480078401CC0B26D
:1041700098490870C82801DD002008709748007829
:1041800038B1964A51781078FFF721F90020934909
:1041900008709248807848B100209049887098480B
:1041A000017898480078FFF7F3F846E28B48C0782A
:1041B00060B100208949C8704FF4C87364224FF47D
:1041C000967100900420FFF7D5FE36E2834800790F
:1041D00028B30020814908718B48027800210846E5
:1041E0008A4B93ED001A8A4BD3ED000A894B93ED6D
:1041F000000AFFF717FE8848008803B28248027859
:10420000864801780020814C94ED001A804CD4ED52
:10421000000A804C94ED000AFFF74BFD0DE26F4859
:10422000807C18B100206D49887406E26B48407CA0
:1042300018B1002069494874FFE168484079E8B343
:10424000002066494871764890ED0A0ABDEEC00A22
:1042500010EE100A01B2724890ED090ABDEEC00AD4
:1042600010EE100A02B26E4890ED080ABDEEC00AC8
:1042700010EE100A00B26B4B93ED090ABDEEC00AB6
:1042800010EE103A1BB2CDE90130CDE903216548AB
:1042900090ED080ABDEEC00A10EE100A00B2614CA3
:1042A000009094ED070ABDEEC00A10EE104A23B24A
:1042B0005C4C94ED060ABDEEC00A00E015E010EE7D
:1042C000104A22B2574C94ED050ABDEEC00A10EE1A
:1042D000104A21B2534C94ED040ABDEEC00A10EE10
:1042E000104A20B2FFF716FCA7E13C48807948B19C
:1042F00000203A4988714848008881B20020FFF7C1
:10430000BCFB9AE13548407B90B3002033494873A9
:1043100040F2DC524448C08900F2DC5080B242498D
:10432000898901F2DC5189B2CDE903023E48059248
:104330000291408900F2DC5080B23C4909883A4C35
:10434000CDE90010648804F2DC54A3B2364C248812
:1043500004F2DC54A2B2344CE48804F2DC54A1B27E
:10436000314CA48804F2DC54A0B2FFF7D7FA64E120
:10437000FFE71A48C07B48B300201849C873009073
:10438000019002902A4C039094ED030ABCEEC00AFF
:1043900010EE104AA3B2264C94ED020ABCEEC00AFD
:1043A00010EE104AA2B2224C94ED010ABCEEC00AF3
:1043B00010EE104AA1B21E4C94ED000ABCEEC00AE9
:1043C00010EE104AA0B2FFF716FA36E132E0000014
:1043D000302B00207E0400207F0400201C2B0020B6
:1043E0008004002081040020820400208304002037
:1043F0008404002085040020860400208704002017
:104400006904002068040020D40400202400002057
:10441000200000201C0000208C3E00209B04002077
:10442000C005002084330020D82B002090040020F9
:10443000682A0020FE48007C40B10020FC49087436
:104440004FF4E4717B20FFF78BF9F6E0F848C07970
:1044500058B30020F649C871F648D0ED1E4AB0EEB8
:10446000644AD0ED1F4AF0EE643AD0ED1D4AB0EE3A
:10447000643AD0ED1A4AF0EE642AD0ED1B4AB0EE51
:10448000642AD0ED194AF0EE641AD0ED164AB0EE67
:10449000641AD0ED174AF0EE640AD0ED154AB0EE7A
:1044A000640A0120FFF743F8C7E0E148007A58B3F7
:1044B0000020DF490872E048D0ED1E4AB0EE644AA1
:1044C000D0ED1F4AF0EE643AD0ED1D4AB0EE643AEA
:1044D000D0ED1A4AF0EE642AD0ED1B4AB0EE642A01
:1044E000D0ED194AF0EE641AD0ED164AB0EE641A17
:1044F000D0ED174AF0EE640AD0ED154AB0EE640A2A
:104500000220FFF714F898E0C948407A58B3002019
:10451000C7494872C948D0ED214AB0EE644AD0ED8F
:10452000224AF0EE643AD0ED204AB0EE643AD0ED83
:104530001D4AF0EE642AD0ED1E4AB0EE642AD0ED9A
:104540001C4AF0EE641AD0ED194AB0EE641AD0EDB0
:104550001A4AF0EE640AD0ED184AB0EE640A03205D
:10456000FEF7E5FF69E0B248807AF8B10020B04973
:104570008872B248D0ED251AB0EE611AD0ED261A35
:10458000F0EE610AD0ED241AB0EE610A9FEDAC4A5C
:10459000DFEDAB3A9FEDAA3ADFEDA92A9FEDA82AFD
:1045A000DFEDA71A0420FEF7C2FF46E0A048C07A5C
:1045B000C0B100209E49C8729FEDA14ADFEDA03A2C
:1045C0009FED9F3ADFED9E2A9FED9D2ADFED9C1A1D
:1045D0009FED9B1ADFED9A0A9FED990A0520FEF7E1
:1045E000A6FF2AE09248007BC0B1002090490873E2
:1045F0009FED934ADFED923A9FED913ADFED902ADD
:104600009FED8F2ADFED8E1A9FED8D1ADFED8C0A5C
:104610009FED8B0A0620FEF78AFF0EE08448C07CDF
:1046200002280AD100208249C8749FED850A002320
:104630001A4619461846FEF7E9FE06B010BD70B5D9
:104640002DED048B04460E460025002004E0215C7D
:104650002944CDB2411CC8B2711E8142F7DCA019B9
:1046600010F8010CA84202D0BDEC048B70BD20787C
:10467000AA2802D16078AF2800D0F5E7A0780128F9
:1046800039D12079012802D16E49087033E02079B0
:10469000022803D101206B4948702CE020790328BF
:1046A00004D1012067490870487024E0207904286B
:1046B00003D10120644908701DE02079052813D139
:1046C000FCF746F90120614908700122604806F0B4
:1046D000A8FE40225F49604806F0A3FEC022574969
:1046E0005E4806F09EFE06E02079212802DB207954
:1046F000262800DD00BFA078022814D120790128E7
:1047000006D14B49C871087248728872C872087322
:104710002079A02802D101204549C8702079A1281C
:1047200001D1FBF7F3FFA078032836D14C4800787D
:10473000012802D0022001F024F92079617941EAB0
:10474000002048498880A079E17941EA0020454964
:10475000C880207A617A41EA002042490880A07A24
:10476000E17A41EA00203F494880207B617B41EAB1
:1047700000203C490881A07BE17B41EA00203949C7
:104780004881207C617C41EA002036498881A07CF8
:10479000E17C41EA00203349C881A078202802D179
:1047A000012031490870A078212802D100202E492B
:1047B0000870A078222802D1207929490870A078B1
:1047C000242825D16079217940EA012000B200EE49
:1047D000100AB8EEC00A254880ED000AE079A179F8
:1047E00040EA012000B200EE100AB8EEC00A2048EC
:1047F00080ED000A607A217A40EA012000B21D496A
:104800000880E07AA17A40EA012000B21A490880C3
:10481000A07810287DD12179090209B2627941EA94
:1048200002000DF005F941EC190B9FED140B29E086
:104830001C2B00209428002058290020600700200D
:104840000000000084330020ED050020050000205A
:1048500000000C082007002000000E0800000A08D5
:104860009B040020622B0020D40400206C04002054
:10487000700400207404002076040020FCA9F1D20A
:104880004D62503F53EC102B0DF060F841EC180BCB
:104890000DF022F9FE494865A179090209B2E279D1
:1048A00041EA02000DF0C4F841EC190B1FED0D0BAD
:1048B00053EC102B0DF04AF841EC180B0DF00CF9ED
:1048C000F349C865217A090209B2627A41EA020015
:1048D0000DF0AEF841EC190B1FED180B53EC102B3B
:1048E0000DF034F841EC180B0DF0F6F8E849886546
:1048F000A17A090209B2E27A41EA02000DF098F8C1
:1049000041EC190B1FED230B53EC102B0DF01EF88F
:1049100000E087E041EC180B0DF0DEF8DC4948665A
:10492000217B090209B2627B41EA02000DF080F8A6
:1049300041EC190B1FED2F0B53EC102B0DF006F86B
:1049400041EC180B0DF0C8F80146D148C166A17BB7
:10495000090209B2E27B41EA02000DF069F841EC7C
:10496000190B1FED3A0B53EC102B0CF0EFFF41EC41
:10497000180B0DF0B1F80146C5488166217C09028B
:1049800009B2627C41EA02000DF052F841EC190BC9
:104990001FED460B53EC102B0CF0D8FF41EC180B1D
:1049A0000DF09AF8BA494867A17C090209B2E27C85
:1049B00041EA02000DF03CF841EC190B1FED510BE0
:1049C00053EC102B0CF0C2FF41EC180B0DF084F8E7
:1049D0000146AF48C167217D090209B2627D41EA03
:1049E00002000DF025F841EC190B1FED5C0B53ECA8
:1049F000102B0CF0ABFF41EC180B0DF06DF80146DD
:104A0000A3488167A348807838B90120A1498870FC
:104A1000A078A1490870A1480570FBF771FE01203C
:104A20009F490880A07811287DD12179090209B217
:104A3000627941EA02000CF0FBFF41EC190B1FED1B
:104A4000710B53EC102B0CF081FF41EC180B0DF0A7
:104A500043F894494865A179090209B2E27941EA2B
:104A600002000CF0E5FF41EC190B1FED7C0B53EC41
:104A7000102B0CF06BFF41EC180B0DF02DF8894951
:104A8000C865217A090209B2627A41EA02000CF093
:104A9000CFFF41EC190B1FED870B53EC102B0CF0E3
:104AA00055FF41EC180B0DF017F87E498865A17A87
:104AB000090209B2E27A41EA02000CF0B9FF41ECC6
:104AC000190B1FED920B53EC102B0CF03FFF41EC38
:104AD000180B0DF001F873494866217B090209B2F1
:104AE000627B41EA02000CF0A3FF41EC190B1FEDC1
:104AF0009D0B53EC102B0CF029FF41EC180B0CF024
:104B0000EBFF01466748C166A17B090209B2E27B5F
:104B100041EA02000CF08CFF41EC190B1FEDA90BD0
:104B200053EC102B00E05CE00CF010FF41EC180B94
:104B30000CF0D2FF01465B488166217C090209B274
:104B4000627C41EA02000CF073FF41EC190B1FED8F
:104B5000B50B53EC102B0CF0F9FE41EC180B0CF0DC
:104B6000BBFF50494867A17C090209B2E27C41EAD7
:104B700002000CF05DFF41EC190B1FEDC00B53EC74
:104B8000102B0CF0E3FE41EC180B0CF0A5FF0146D6
:104B90004448C167217D090209B2627D41EA0200F1
:104BA0000CF046FF41EC190B1FEDCC0B53EC102B16
:104BB0000CF0CCFE41EC180B0CF08EFF014639488E
:104BC00081673448807838B9012032498870A078EC
:104BD0003149087031480570FBF792FD01203049DA
:104BE0000880A078122852D12179090209B262798D
:104BF00041EA02000CF01CFF41EC190B1FEDE10B28
:104C000053EC102B0CF0A2FE41EC180B0CF064FFDF
:104C100025490866A179090209B2E27941EA020050
:104C20000CF006FF41EC190B1FEDEC0B53EC102BB5
:104C30000CF08CFE41EC180B0CF04EFF1A49886604
:104C4000217A090209B2627A41EA02000CF0F0FE10
:104C500041EC190B1FEDF70B53EC102B0CF076FE0B
:104C600041EC180B0CF038FF0F494866A17A090295
:104C700009B2E27A41EA02000CF0DAFE41EC190BCB
:104C80009FED0A0B53EC102B0CF060FE12E098E045
:104C9000942800201C2B00206804002069040020B8
:104CA000780400205829002060070020FCA9F1D2D8
:104CB0004D62503F41EC180B0CF00EFFFE490867A7
:104CC000217B090209B2627B41EA02000CF0B0FECE
:104CD00041EC190B1FED0B0B53EC102B0CF036FEB7
:104CE00041EC180B0CF0F8FEF3498867A17B090230
:104CF00009B2E27B41EA02000CF09AFE41EC190B8A
:104D00001FED160B53EC102B0CF020FE41EC180B92
:104D10000CF0E2FEE8494867217C090209B2627C96
:104D200041EA02000CF084FE41EC190B1FED210B4F
:104D300053EC102B0CF00AFE41EC180B0CF0CCFEDF
:104D4000DD49C1F88000A17C090209B2E27C41EA98
:104D500002000CF06DFE41EC190B1FED2C0B53EC17
:104D6000102B0CF0F3FD41EC180B0CF0B5FED24902
:104D7000C1F88800217D090209B2627D41EA020082
:104D80000CF056FE41EC190B1FED380B53EC102BB9
:104D90000CF0DCFD41EC180B0CF09EFEC649C1F88E
:104DA0008400C648807838B90120C4498870A0784A
:104DB000C3490870C3480570FBF7A2FC0120C24933
:104DC0000880A078132854D12179090209B26279A8
:104DD00041EA02000CF02CFE41EC190B1FED4D0BCB
:104DE00053EC102B0CF0B2FD41EC180B0CF074FEE0
:104DF000B149C1F89000A179090209B2E27941EA0A
:104E000002000CF015FE41EC190B1FED580B53EC92
:104E1000102B0CF09BFD41EC180B0CF05DFEA6492D
:104E2000C1F89800217A090209B2627A41EA0200C7
:104E30000CF0FEFD41EC190B1FED640B53EC102B35
:104E40000CF084FD41EC180B0CF046FE9A49C1F8B9
:104E500094009A48807838B9012098498870A078E1
:104E60009749087097480570FBF74AFC012096495E
:104E70000880A07814280AD19048807838B9012099
:104E80008E498870A0788E4908708E480570A07889
:104E900015280AD18948807838B901208749887057
:104EA000A078874908708748057000BFFFF7DCBB12
:104EB00010B504468548007838B9AA2C05D10120E0
:104EC00082490870824804705DE0804800780128BB
:104ED00007D1AF2C05D102207C4908707C48447072
:104EE00051E07A480078022807D1F12C05DA032036
:104EF000764908707648847045E074480078032845
:104F00000CD1322C0ADA0420704908707048C47041
:104F10007048047000207049087034E06B480078D5
:104F2000042819D16B480078002815DD69480078FD
:104F3000401E684908706848007867490978491C2C
:104F4000654A1170001D62490C5462480078D0B95E
:104F500005205E49087016E05C48007805280FD1EE
:104F600000205A4908705C480078001D58490C54CC
:104F700059480078401DC1B25548FFF760FB02E078
:104F800000205249087010BD10B5044653480078FF
:104F900038B9AA2C05D10120504908705048047036
:104FA0005DE04E480078012807D1AF2C05D10220E2
:104FB0004A4908704A48447051E04848007802283D
:104FC00007D1F12C05DA0320444908704448847065
:104FD00045E04248007803280CD1322C0ADA04203C
:104FE0003E4908703E48C4703E48047000203E4967
:104FF000087034E039480078042819D1394800781D
:10500000002815DD37480078401E364908703648BC
:10501000007835490978491C334A1170001D304920
:105020000C5430480078D0B905202C49087016E09F
:105030002A48007805280FD10020284908702A48FE
:105040000078001D26490C5427480078401DC1B245
:105050002348FFF7F4FA02E000202049087010BD51
:1050600030B52DED048B81B0B0EE408AF0EE608A51
:10507000B0EE419A0024AA222146641C1B484254E7
:105080002146641C42540B222146641C42540022D7
:105090002146641C42549FED160A28EE000ABDEE1C
:1050A000C00A10EE100A00B200909DF801202146BF
:1050B000641C0E4842541DE0600700201C2B002099
:1050C0006804002069040020780400208A0400207D
:1050D000722B002088040020890400208D04002009
:1050E000A42B00208B0400208C040020302B0020F7
:1050F000CDCCCC3D9DF800202146641C42541FEDD0
:10510000040A28EE800ABDEEC00A10EE100A00B2B2
:1051100000909DF801202146641C704842549DF87F
:1051200000202046611CCCB26C490A541FED100AC5
:1051300029EE000ABDEEC00A10EE100A00B200907F
:105140009DF801202046611CCCB264490A549DF8A8
:1051500000202046611CCCB260490A54201FC87050
:105160000025002005E05D49095C2944CDB2411CC1
:10517000C8B2A042F7DB2046611CCCB257490D549F
:1051800021465648FEF7FCF801B0BDEC048B30BD5B
:1051900038B50024AA222146641C504842542146B6
:1051A000641C4254F1222146641C425400222146D0
:1051B000641C4254012000909DF801202146641C8B
:1051C000464842549DF800202146641C4254022067
:1051D00000909DF801202146641C404842549DF8EF
:1051E00000202046611CCCB23C490A5403200090A8
:1051F0009DF801202046611CCCB238490A549DF824
:1052000000202046611CCCB234490A54042000908E
:105210009DF801202046611CCCB230490A549DF80B
:1052200000202046611CCCB22C490A540520009075
:105230009DF801202046611CCCB228490A549DF8F3
:1052400000202046611CCCB224490A54244800881E
:1052500000EB8000400000B200909DF80120204645
:10526000611CCCB21D490A549DF800202046611CE7
:10527000CCB21A490A541B4890ED020ADFED1A0A13
:1052800020EE200ABDEEC00A10EE100A00B2009017
:105290009DF801202046611CCCB210490A549DF8AB
:1052A00000202046611CCCB20C490A54201FC87053
:1052B0000025002005E00949095C2944CDB2411CC4
:1052C000C8B2A042F7DB2046611CCCB203490D54A2
:1052D00021460248FEF754F838BD0000302B00206C
:1052E0008C3E0020982A002000401C4602460020E8
:1052F00007E0F94B1B5632F8133021F81030431CED
:10530000D8B20828F5DB7047F44890ED021ADFEDBB
:10531000F41AB4EEE11AF1EE10FA7CD290ED031A11
:10532000DFEDEF1AB4EEE11AF1EE10FA0AD3ED4810
:10533000007803284ED19FEDEC1AF4EEC10AF1EE8D
:1053400010FA47D2E948B0F90000401C00B3E84821
:105350000078E8B1E548B0F9000001EE100AB8EEB7
:10536000C11ADFEDE41A01EE801ABDEEC11A11EE8A
:10537000100A00B2DD4908800846B0F90000B0F517
:10538000C87F05DD0020DA490870401ED749088033
:10539000D748007800286CD1D748008840F26C715B
:1053A000884207DDD4484088884203DD0320CD4988
:1053B00008705EE0D048408840F26C71884258DD49
:1053C000CD48008840F24C41884252DA0120C5495C
:1053D00008704EE0C14890ED031ADFEDC81AB4EE34
:1053E000E11AF1EE10FA0ADCBE480078032834D145
:1053F0009FEDC31AF4EEC10AF1EE10FA2DDDBB48A1
:10540000B0F90000401C38B3B948007820BBB74859
:10541000B0F9000000E029E001EE100AB8EEC11A70
:10542000DFEDB81A01EE801ABDEEC11A11EE100AB6
:1054300000B2AE4908800846B0F9000040F2DC51E5
:10544000884216DD0120AA490870801EA7490880FD
:105450000120AD49087048700BE0A448B0F9000085
:10546000401C30B90020A149088002E000209F497B
:10547000088070473FB5B0EE402A0546994800784D
:10548000012808D1A1492846FFF730FF40F21360F8
:105490009F49088032E093480078022808D19B4950
:1054A0009C48FFF723FF40F257409949088025E0C8
:1054B0008C480078032821D1874890F9000095494D
:1054C00031F8100091490880834890F90100914912
:1054D00031F810008D4948807F4890F9020035F876
:1054E000100088807C4890F903008A4931F8100048
:1054F0008649C88040F2CF7085490880002425E2A3
:10550000824830F8140040F6C411884205DC7F4818
:1055100030F81400B0F5FA7F07DA01207E4908550B
:1055200000207E4921F8140012E07C4830F8140075
:10553000401C7A4921F81400084630F81400C828A5
:1055400006DD4FF4FA6021F8140000207249085576
:1055500064480078012807D062480078022803D008
:105560006048007803287DD16B48005D00287AD11F
:10557000664830F8140000B22DF81400684830F97D
:105580001400684931F9141088426DDD6648005DE9
:10559000F0BB3DF91400634931F91410401A00EED4
:1055A000100AB8EEC01A5E4830F914005D4931F9AE
:1055B0001410401A00EE100AB8EEC00AC1EE000A3C
:1055C0009FED501A9FED590A10EE810ABDEEC00AF8
:1055D00010EE100A00B210F5FA7F01DA54484FE0DD
:1055E0003DF914004F4931F91410401A00EE100A29
:1055F000B8EEC01A4A4830F914004A4931F914107B
:10560000401A00EE100AB8EEC00AC1EE000A00E02F
:105610003AE09FED3C1A9FED450A10EE810ABDEE7F
:10562000C00A10EE100A00B2B0F5FA7F02DD4FF4A6
:10563000FA7025E03DF914003A4931F91410401A86
:1056400000EE100AB8EEC01A354830F9140035499A
:1056500031F91410401A00EE100AB8EEC00AC1EE7B
:10566000000A02E0BFE0BAE0B6E09FED261A9FED27
:105670002F0A10EE810ABDEEC00A10EE100A00B229
:105680002C4921F81400AAE03DF91400254931F90C
:105690001410401A00EE100AB8EEC01A204830F973
:1056A0001400204931F91410401A00EE100AB8EE27
:1056B000C00AC1EE000A9FED131A9FED1C0A10EEFE
:1056C000810ABDEEC00A10EE100A00B210F5FA7F92
:1056D00032DA17487AE0000092040020082C0020FB
:1056E0000000C8C39B04002000808944D604002029
:1056F000D404002000401C46743300200000C8433E
:105700000080ED4400007A4484330020782C00208F
:1057100090040020622B00209C040020682C0020B4
:10572000A6040020B6040020C60400200000FA43AE
:105730000CFEFFFFD82B00203DF91400984931F9E9
:105740001410401A00EE100AB8EEC01A954830F94D
:105750001400934931F91410401A00EE100AB8EE03
:10576000C00AC1EE000A1FED191A1FED100A10EE53
:10577000810ABDEEC00A10EE100A00B2B0F5FA7F41
:1057800002DD4FF4FA7021E03DF91400844931F94B
:105790001410401A00EE100AB8EEC01A814830F911
:1057A00014007F4931F91410401A00EE100AB8EEC7
:1057B000C00AC1EE000A1FED2D1A1FED240A10EEDB
:1057C000810ABDEEC00A10EE100A00B2404200B2DB
:1057D000754921F8140002E0002074490870002087
:1057E0007349087002E00120714908709FED710A49
:1057F00022EE000A704880ED000A3DF9140000EE28
:10580000100AB8EEC00A6D4800EB8400D0ED000A23
:1058100030EE600AB5EEC00AF1EE10FA0DDD3DF98A
:10582000140000EE100AB8EEC00A644800EB8400D1
:10583000D0ED000A30EE600A0EE03DF9140000EEF3
:10584000100AB8EEC00A5D4800EB8400D0ED000AF3
:1058500030EE600AB1EE400ADFED590AB4EEE00A1C
:10586000F1EE10FA1DD2504830F9140000EE100A83
:10587000B8EEC00A514800EB8400D0ED000A70EE8B
:10588000600A4E4800EB840090ED000A4A4890ED13
:10589000001A01EE200A494800EB840080ED000A5E
:1058A00020E0414830F9140000EE100AB8EEC00ABA
:1058B000424800EB8400D0ED000A70EE600A3F48D9
:1058C00000EB840090ED000A3B4890ED001AF6EEE4
:1058D000001A21EE211A01EE200A384800EB84005C
:1058E00080ED000A3748007838B93048007820B990
:1058F0009FED350A314880ED020A304800EB840004
:1059000090ED000A314800EB8400D0ED000A30EE43
:10591000600A2F4800EB840080ED000A274800EB66
:10592000840090ED000A294800EB840080ED000A15
:105930001D4830F9140000EE100AB8EEC00A2548E0
:1059400000EB840080ED000A601CC4B2082CFFF656
:10595000D7ADE88800EE100AB8EE400AF0EE400A33
:10596000B0EE420AFFF7D0FC1B480088401C80B212
:1059700019490880C82803DD0020088011490870F3
:105980003FBD10490978032903D10021124A118033
:1059900070470C49087000210F4A118000BFF7E7DB
:1059A000B6040020A6040020D82B0020D404002038
:1059B0009A04002034337B42D0040020082C0020BD
:1059C0000000C8429B0400200000FAC3282C0020DD
:1059D000482C0020E82B0020A404002009F032B954
:1059E000704700207047002070470020704700205B
:1059F000704700207047002070470020704700204B
:105A0000704700207047002070470020704700203A
:105A10007047002070470020704709F03AB970477E
:105A2000002070470020704708F07EBF70470000DC
:105A300010B508F07DF9012008F085F910BD70B5AA
:105A4000024600200AE0145C864B1D781B785B1C24
:105A5000844E3370844B5C55431CD8B28842F2DBD1
:105A600070BD10B57F4800788049097888425BDDB9
:105A70007C4800787D490978401A3F281BDB0020CC
:105A80007B4908703F207B49087000200BE0774974
:105A90000A780978491C754B197073498A5C754BF3
:105AA000411C5A54C8B23F28F1DB40227149002002
:105AB00009F0D5F99FE06E480078401C6C490870E9
:105AC000084600786C4909788842F3D1002068497B
:105AD00008706448007865490978401A654908707B
