:020000040800F2
:10000000A04500202DDB0008B101000837DB000807
:10001000B3010008B7010008BB01000800000000A0
:10002000000000000000000000000000BF01000808
:10003000C10100080000000043DB0008C301000804
:1000400047DB000847DB000847DB000847DB000808
:1000500047DB000847DB000847DB000847DB0008F8
:1000600047DB000847DB000847DB000847DB0008E8
:1000700047DB000847DB000847DB000847DB0008D8
:1000800047DB000847DB000847DB000847DB0008C8
:1000900047DB000847DB000847DB000847DB0008B8
:1000A00047DB000847DB000847DB000847DB0008A8
:1000B00047DB0008D5010008DD01000847DB000828
:1000C00047DB000847DB000847DB000847DB000888
:1000D00047DB00085B970008E501000847DB0008E4
:1000E00047DB000847DB000847DB000847DB000868
:1000F00047DB000847DB000847DB000847DB000858
:1001000047DB000847DB000847DB000847DB000847
:1001100047DB0008ED01000847DB000847DB00086B
:1001200047DB000847DB000847DB000847DB000827
:1001300047DB000847DB000847DB000847DB000817
:1001400047DB000847DB000847DB0008E1A50008A3
:1001500047DB000847DB000847DB000847DB0008F7
:1001600047DB000847DB000847DB000847DB0008E7
:1001700047DB000847DB000847DB000847DB0008D7
:1001800047DB000847DB0008DFF80CD011F046FD24
:10019000004800479D010008A045002000F01DF91F
:1001A0000249087001E000F0C3F8FCE700000020FD
:1001B000704700BFFEE700BFFEE700BFFEE77047E5
:1001C000704710B50B480068401C0A49086006F0EB
:1001D00049FF10BD10B507F03AF910BD10B507F092
:1001E0003DFA10BD10B509F0FBF810BD10B509F0CF
:1001F000D3F910BD680500206E48C089401C6D49C8
:10020000C88108468088401C00B288800846C088A3
:10021000401C00B2C88008460089401C00B208811A
:1002200008464089401C00B2488108468089401C2D
:1002300000B2888108460078012804D10846407839
:10024000401C487002E001205A490870704710B500
:10025000012006F046FF03F05FFF10BD10B52DED45
:10026000028B002006F03DFF00EE100AB8EE400AB7
:10027000DFED510A80EE201AB0EE418A07F080FED1
:10028000B0EE480A08F006F94C48D0ED063AB0EE58
:10029000633AD0ED053AF0EE632AD0ED043AB0EEC1
:1002A000632AD0ED0C3AF0EE631AD0ED0B3AB0EEC3
:1002B000631AD0ED0A3AF0EE630AF6EE003A68EE01
:1002C000233AB0EE630A3E4A3E493F4801F014FC2F
:1002D000B0EE480A01F068F83C48B0EE480A05F074
:1002E0000DF8BDEC028B10BD10B52DED028B022078
:1002F00006F0F7FE00EE100AB8EE400ADFED2E0A17
:1003000080EE201AB0EE418AB0EE480A00F09CFB65
:10031000BDEC028B10BD10B508F03CFD10BD10B552
:1003200000F052FB10BD10B500240AF0CFFE10BD46
:1003300010B52048007801283BD12548008800B23C
:1003400024490880FFF783FF1A48B0F90400022807
:1003500004DB002017498880FFF780FF1548B0F9BB
:100360000600052804DB00201249C880FFF7BCFF07
:100370001048B0F908000A2804DB00200D49088164
:10038000FFF7C9FF0B48B0F90A00142804DB00206E
:1003900008494881FFF7C3FF0648B0F90C0032282E
:1003A00004DB002003498881FFF7BDFF00200149DD
:1003B000087010BD0C07002000247449843300200D
:1003C00024000020200000201C00002074330020A6
:1003D0007805002002000020704710B54FF48060BF
:1003E0000AF0ACFF06F0DCFD07F00BFC06F0D2FED5
:1003F0004FF4C87007F030FA4FF4C87006F026FECC
:10040000142007F09FFE08F0CBFC4FF4E13009F018
:1004100010F94FF4E13008F039FF00F033FA6420AE
:1004200006F014FE0AF04CFE08F088FA80F0010095
:100430000249087006F090FE012010BDEC05002076
:1004400038B50122F7A1F8480FF082FD0446C4B187
:1004500000221146F3A010F074FD044614B14FF0D1
:10046000FF3038BD0022EFA1EF480FF071FD0446C8
:100470003CB10022EBA110460FF06AFD6FF00100C5
:10048000EFE7EAA1EA4810F01AFA04463CB100226C
:10049000E4A110460FF05CFD6FF00200E1E70122DD
:1004A000E4A1E7480FF07FFD04463CB10022DDA146
:1004B00010460FF04DFD6FF00300D2E76B4640226F
:1004C000E049DF480FF021FE0446009878B3DC488D
:1004D00010F07AF80122DCA1D9480FF064FD04463F
:1004E0003CB10022CFA110460FF032FD6FF00300A7
:1004F000B7E76B46C022D649D1480FF006FE044646
:10050000009848B1CE4810F05FF80022C5A110460F
:100510000FF01EFD0120A4E7C94810F055F8002295
:10052000C0A110460FF014FD6FF0030099E7FFE73C
:10053000C34810F049F80022BAA110460FF008FD98
:100540006FF004008DE738B50022B6A1B6480FF071
:10055000FFFC0446C4B100221146B2A010F0F1FC29
:10056000044614B14FF0FF3038BD0022ADA1AE48B3
:100570000FF0EEFC04463CB10022AAA110460FF099
:10058000E7FC6FF00100EFE7A8A1A94810F097F988
:1005900004463CB10022A3A110460FF0D9FC6FF035
:1005A0000200E1E70A22A3A1A5480FF0FCFC0446E3
:1005B0003CB100229BA110460FF0CAFC6FF0030073
:1005C000D2E76B4640229F499D480FF097FE0446B4
:1005D00074BB9B480FF0F8FF0A229BA198480FF0CC
:1005E000E2FC04463CB100228EA110460FF0B0FCA4
:1005F0006FF00300B8E76B46C022954990480FF0B2
:100600007DFE04464CB98E480FF0DEFF002285A126
:1006100010460FF09DFC0120A6E789480FF0D4FF9B
:10062000002280A110460FF093FC6FF003009BE7BF
:1006300083480FF0C9FF00227AA110460FF088FC12
:100640006FF0040090E710B582487E4BD3E900219B
:100650009B68C0E90E1342637A4BD3E903215B69BF
:10066000C0E9111302647C48764B18330ECB083076
:100670000EC0784A734B24330BCB58320BC27148EF
:1006800090ED0D0A734880ED190A6E4890ED0E0A40
:10069000704880ED1A0A71486D4C1ECC54301EC053
:1006A00064386B49D1E905340A69C969C0E91A346B
:1006B00042660167664BD3E909141A6ADB6AC0E92E
:1006C0001F43C0E91D216648614BD3E90C41D3E9C2
:1006D0000E23C0E91541C0E917235D49D1E9114353
:1006E0000A6CC96CC0E91A43426601675849D1E9EE
:1006F0001434D1E91621C0E91D34C0E91F2110BD11
:1007000010B500F08FF905F011FC10BD10B59FED8C
:10071000550A4F4880ED040A9FED520A80ED000A09
:10072000B7EE000A80ED080A9FED4F0A80ED060A39
:100730009FED4D0A80ED020A9FED4B0A80ED0A0AFB
:100740009FED4A0A80ED050A9FED480A80ED010AF7
:10075000B0EE000A80ED090AB7EE000A80ED070A44
:10076000B7EE000A80ED030AB7EE000A80ED0B0A2F
:10077000B6EE000A80ED100AB6EE000A80ED0C0A13
:100780009FED3B0A80ED140A9FED3A0A80ED120AB4
:100790009FED380A80ED0E0A9FED360A80ED160AAD
:1007A0009FED350A80ED110A9FED330A80ED0D0AA9
:1007B0009FED2D0A80ED150AB7EE000A80ED200AA4
:1007C000B7EE000A80ED220AB7EE000A80ED210A9A
:1007D000B7EE000A80ED240AB7EE000A80ED260A83
:1007E000B7EE000A80ED250A9FED240A80ED180A75
:1007F000B7EE000A80ED1A0AB7EE000A80ED190A7A
:10080000B1EE040A80ED1C0A9FED1D0A80ED1E0A60
:10081000B6EE000A80ED1D0AFFF715FFFFF770FF27
:1008200010BD0000303A00001C0800202F0000001E
:100830007428002073656E736F722E62696E0000FB
:100840004C1800201C0700207069642E62696E003D
:100850005C07002084330020C00500209028002081
:10086000542900209A99193FCDCCCC3DCDCC0C40D9
:10087000CDCC4C3FCDCC4C3D9A99993E6666E63F37
:100880008FC2F53C10B501225A495B480AF02DFD94
:1008900058480078012804D14022584958480AF0A5
:1008A00024FDFFF733FF53480078012804D1C0220C
:1008B000544955480AF019FDFFF7C5FEFFF720FF20
:1008C00010BD10B50446514894E80E0034300EC0F7
:1008D0004A4894E80E000EC04C4890ED190A47486B
:1008E00080ED0D0AFFF72FFE10BD10B504464748F6
:1008F00094E80E0040300EC0404894E80E000C30E2
:100900000EC0424890ED1A0A3C4880ED0E0AFFF7EF
:100910001AFE10BD10B504463D4894E80E0008309C
:100920000EC0364894E80E0018300EC0FFF70BFEDC
:1009300010BD10B50446354894E80E0058300EC07E
:100940002E4894E80E0024300EC0FFF7FCFD10BDC9
:1009500010B52C482F49D1E916344A6D096E80E84C
:100960001C00C16001462B48D0E91A34426E006F6A
:10097000C1E905340A61C8612648D0E91E34426FD6
:10098000D0F88000C1E909340A62C8620A46224CE4
:10099000D4E91530D4E91714C2E90E14C2E90C30B9
:1009A00010461D49D1E91942D1E91B31C0E9104275
:1009B000C0E912311849D1E91D42D1E91F31C0E91E
:1009C0001442C0E9163110BD00B51448008820B1AA
:1009D00012480088401C11490880104800883C28B3
:1009E00007DD00200D4908800D48007808B9FFF7A1
:1009F000AFFF00BD0500002000000C081C07002010
:100A000000000E085C07002000000A088433002064
:100A1000C0050020902800205429002078040020E0
:100A2000D4040020B7EE000AF74880ED180AB7EEAC
:100A3000000A80ED1C0AB7EE000A80ED200A9FED47
:100A4000F30A80ED300A704710B52DED028BB0EE41
:100A5000408AEF48D0ED000AB0EE600AB7EE001A07
:100A6000DFEDEC0A02F059FBDFEDEB0A80EE201A15
:100A7000B3EE0E0A21EE000AE84880ED000AE448D1
:100A8000D0ED010AF1EE600AB0EE600AB7EE001A8E
:100A9000DFEDE00A02F041FBDFEDDF0A80EE201A15
:100AA000B3EE0E0A21EE000ADC4880ED010ADC48B4
:100AB000007818BBD648D0ED030AB0EE600A9FED6F
:100AC000D91ADFEDD40A02F043FBDFEDD30A80EE42
:100AD000201A9FEDD50A21EE000ABDEEC00A10EEE5
:100AE000100A00B200EE100AF8EEC00ACB4890EDF2
:100AF000020A00EE880A80ED020A0AE0C74890ED7B
:100B0000020ACA48D0ED000A30EE200AC34880ED40
:100B1000020AC248D0ED020AB0EE600A02F066FB9B
:100B2000BE4880ED020AC248D0ED000ABB4890EDF5
:100B3000001A70EE810ABF4890ED001A70EEC10AEB
:100B4000B0EE600A02F052FBBB4880ED000AB848E4
:100B5000D0ED010AB14890ED011A70EE810AB74854
:100B600090ED001A70EEC10AB0EE600A02F03EFB92
:100B7000B14880ED010AAE48D0ED020AA74890EDD9
:100B8000021A70EE810AA94890ED001A70EEC10AAF
:100B9000B0EE600A02F02AFBA74880ED020A90ED51
:100BA000000AB5EEC00AF1EE10FA02DD90ED000A7F
:100BB00004E0A14890ED000AB1EE400AF3EE0E0AFF
:100BC00080EE201A9C4880ED2D1A90ED010AB5EEBA
:100BD000C00AF1EE10FA02DD90ED010A04E0964839
:100BE00090ED010AB1EE400AF3EE0E0A80EE201AF3
:100BF000914880ED2E1A90ED020AB5EEC00AF1EE92
:100C000010FA02DD90ED020A04E08B4890ED020A32
:100C1000B1EE400AF3EE0E0A80EE201A864880ED0F
:100C20002F1ADFED870A80EE880AD0ED000A90EDDA
:100C3000031A70EEC10A90ED161AF2EE041A21EEB4
:100C4000211A60EE810A20EE200A80ED0C0ADFED09
:100C50007C0A80EE880AD0ED010A90ED041A70EE4D
:100C6000C10A90ED1A1AF2EE041A21EE211A60EE72
:100C7000810A20EE200A80ED0D0ADFED710A80EE78
:100C8000880AD0ED020A90ED051A70EEC10A90EDC7
:100C90001E1AF2EE041A21EE211A60EE810A20EEED
:100CA000200A80ED0E0A90ED170AD0ED000A60EEE2
:100CB000200A90ED060A00EE880A80ED060A90ED03
:100CC0001B0AD0ED010A60EE200A90ED070A00EE43
:100CD000880A80ED070A90ED1F0AD0ED020A60EE47
:100CE000200A90ED080A00EE880A80ED080A5548AF
:100CF00090ED000AF6EE000A20EE200AF3EE0E0A4E
:100D000020EE200A4C4880ED090A4E4890ED000A7A
:100D1000F6EE000A20EE200AF3EE0E0A20EE200A7C
:100D2000454880ED0A0A474890ED000AF6EE000AB1
:100D300020EE200AF3EE0E0A20EE200A3E4880ED57
:100D40000B0A90ED060AD0ED090AF1EE600AB4EE46
:100D5000E00AF1EE10FA04D290ED090AB1EE400A71
:100D60000FE0354890ED060AD0ED090AB4EEE00A2E
:100D7000F1EE10FA02DD90ED090A02E02E4890ED46
:100D8000060A2D4880ED060A90ED070AD0ED0A0A02
:100D9000F1EE600AB4EEE00AF1EE10FA04D290ED42
:100DA0000A0AB1EE400A0FE0234890ED070AD0EDA1
:100DB0000A0AB4EEE00AF1EE10FA02DD90ED0A0A3A
:100DC00002E01D4890ED070A1B4880ED070A90EDF0
:100DD000080AD0ED0B0AF1EE600AB4EEE00AF1EE7B
:100DE00010FA04D290ED0B0AB1EE400A2FE012483F
:100DF00090ED080AD0ED0B0AB4EEE00AF1EE10FA1D
:100E000022DD90ED0B0A22E090280020CDCC4C3E54
:100E1000042C0020000000000000FA43182A0020E3
:100E20000C00002000002042000016432400002097
:100E3000242A00201C00002054290020200000202B
:100E40000AD7A33B10000020F94890ED080AF848A3
:100E500080ED080A90ED000A80ED030A90ED010A8A
:100E600080ED040A90ED020A80ED050A90ED000A7B
:100E7000DFEDF00AB4EEE00AF1EE10FA02D29FEDD7
:100E8000ED0A0FE0EA4890ED000ADFEDEB0AB4EE60
:100E9000E00AF1EE10FA02DD9FEDE70A02E0E44815
:100EA00090ED000AE24880ED000A90ED010ADFEDC6
:100EB000E10AB4EEE00AF1EE10FA02D29FEDDD0A8B
:100EC0000FE0DB4890ED010ADFEDDB0AB4EEE00A4B
:100ED000F1EE10FA02DD9FEDD80A02E0D44890ED61
:100EE000010AD34880ED010A90ED020ADFEDD10A34
:100EF000B4EEE00AF1EE10FA02D29FEDCE0A0FE056
:100F0000CB4890ED020ADFEDCC0AB4EEE00AF1EE38
:100F100010FA02DD9FEDC80A02E0C54890ED020A12
:100F2000C34880ED020A90ED000AD0ED0C0A30EEC5
:100F3000200AD0ED060A30EE200AD0ED150A20EE88
:100F4000200A80ED120A90ED010AD0ED0D0A30EE74
:100F5000200AD0ED070A30EE200AD0ED190A20EE63
:100F6000200A80ED130A90ED020AD0ED0E0A30EE51
:100F7000200AD0ED080A30EE200AD0ED1D0A20EE3E
:100F8000200A80ED140ABDEC028B10BD10B52DEDCA
:100F9000048B8AB0F0EE408AB0EE609AB0EE418ADF
:100FA0009FEDA60AB4EEC08AF1EE10FA02D29FEDD0
:100FB000A30A0BE09FEDA20AB4EEC08AF1EE10FA8C
:100FC00002DD9FED9F0A01E0B0EE480AB0EE408AD4
:100FD000B1EE680A30EE090A30EE080A8DED040A17
:100FE00038EE890A30EE480A8DED050A38EEC90A56
:100FF00030EE080A8DED060AB1EE680A30EE490AB5
:1010000030EE480A8DED070A002429E004A800EB21
:10101000840090ED000ADFED8B0AB4EEE00AF1EEF9
:1010200010FA02D29FED870A13E004A800EB8400B7
:1010300090ED000ADFED840AB4EEE00AF1EE10FA5A
:1010400002DD9FED810A04E004A800EB840090ED2E
:10105000000A04A800EB840080ED000A601CC4B202
:10106000042CD3DB9DED040A8DED000A9DED050AED
:101070008DED010A9DED060A8DED020A9DED070A30
:101080008DED030ADDED000A704890ED000A70480E
:1010900090ED001A01EE200A6E4880ED000ADDEDA9
:1010A000010A6A4890ED000A694890ED001A01EEC5
:1010B000200A684880ED010ADDED020A634890EDE0
:1010C000000A634890ED001A01EE200A614880EDA5
:1010D000020ADDED030A5D4890ED000A5C4890EDE0
:1010E000001A01EE200A5B4880ED030A5A48007896
:1010F00000285ED05948007870BB002429E055488C
:1011000000EB840090ED000ADFED550AB4EEE00A32
:10111000F1EE10FA02D29FED520A13E04D4800EBB7
:10112000840090ED000ADFED480AB4EEE00AF1EE2B
:1011300010FA02DD9FED440A04E0464800EB84000B
:1011400090ED000A434800EB840080ED000A601C2B
:10115000C4B2042CD3DB39E0002427E03D4800EB87
:10116000840090ED000AB5EEC00AF1EE10FA02D24A
:101170001FEDD80A13E0374800EB840090ED000A19
:10118000DFED310AB4EEE00AF1EE10FA02DD9FED78
:101190002E0A04E02F4800EB840090ED000A2D4851
:1011A00000EB840080ED000A601CC4B2042CD5DB87
:1011B0000CE0002408E01FEDE90A264800EB84005B
:1011C00080ED000A601CC4B2042CF4DB214890EDD1
:1011D000000ABDEEC00A10EE100A00B2ADF8200001
:1011E0001C4890ED010ABDEEC00A10EE100A00B2D4
:1011F000ADF82200174890ED020ABDEEC00A10EECD
:10120000100A00B2ADF82400124890ED030ABDEEBA
:10121000C00A10EE100A00B2ADF826004FF47A7240
:10122000002108A806F087FC0AB0BDEC048B10BDB5
:10123000542900200000B4C20000B4420000C8C31A
:101240000000C84300007AC400007A44080000206F
:1012500010000020642A0020D40400200C0000208C
:101260000000484310B52DED028BB0EE408AFE48D9
:1012700090ED020ADFEDFD0A30EE200AFC4880ED19
:10128000000AFC4890ED000A5FED130A80EE201A78
:10129000F94890ED000A71EE400A9FEDF80A28EE39
:1012A000001A90ED000A01EE200A80ED000A90ED90
:1012B000000AB5EEC00AF1EE10FA02D29FEDF00A74
:1012C0000FE0ED4890ED000AF7EE000AB4EEE00AF8
:1012D000F1EE10FA02DDB7EE000A02E0E64890ED0A
:1012E000000AE84880ED000AE14890ED000ADFEDD1
:1012F000E60AB4EEE00AF1EE10FA03D20120E34967
:10130000087002E00020E1490870E1480078E8B97F
:10131000D74890ED000AB5EEC00AF1EE10FA02D2FD
:101320009FEDD70A0FE0D24890ED000ADFEDD90A11
:10133000B4EEE00AF1EE10FA02DD9FEDD60A02E00B
:10134000CB4890ED000ACA4880ED000AB7EE001ABB
:10135000D1480078C649D1ED000AB0EE480A04F041
:1013600065FEC44880ED000A90ED000AB5EEC00AA3
:10137000F1EE10FA02D29FEDC20A0FE0BD4890EDE7
:10138000000ADFEDC60AB4EEE00AF1EE10FA02DD63
:101390009FEDC20A02E0B74890ED000AB54880ED23
:1013A000000ABDEC028B10BD00B52DED028B83B0A1
:1013B000B0EE408ABA4890ED120AF3EE0E0A80EEC3
:1013C000201A9FEDB80A21EE000A8DED000AD0ED3B
:1013D000130AB3EE0E1A80EE810ADFEDB20A20EE98
:1013E000200A8DED010A90ED140AF3EE0E0A80EE4C
:1013F000201A9FEDAD0A21EE000A8DED020A9DED47
:10140000000AAA4880ED000A9DED010A80ED010A5C
:101410009DED020A80ED020A90ED000ADFEDA40ABC
:10142000B4EEE00AF1EE10FA02D29FEDA10A0FE04D
:101430009E4890ED000ADFED9B0AB4EEE00AF1EE63
:1014400010FA02DD9FED970A02E0984890ED000A3D
:10145000964880ED000A90ED010ADFED950AB4EEA2
:10146000E00AF1EE10FA02D29FED910A0FE08F48E8
:1014700090ED010ADFED8B0AB4EEE00AF1EE10FA0E
:1014800002DD9FED880A02E0884890ED010A874856
:1014900080ED010A90ED020ADFED860AB4EEE00A63
:1014A000F1EE10FA02D29FED830A0FE07F4890ED33
:1014B000020ADFED7D0AB4EEE00AF1EE10FA02DD79
:1014C0009FED790A02E0794890ED020A774880EDB5
:1014D000020ADFED790A80EE880A7848D0ED0A0A20
:1014E000774890ED001A70EEC10A20EE200A754888
:1014F00080ED0F0ADFED700A80EE880A6F48D0EDAC
:101500000B0AF1EE600A6E4890ED011A70EEC10A06
:1015100020EE200A6B4880ED100ADFED670A80EEAE
:10152000880A6648D0ED0C0AF1EE600A644890ED36
:10153000021A70EEC10A20EE200A624880ED110AFC
:101540005A4890ED000A5D48D0ED0A0A30EE600A74
:10155000F7EE000A20EE200A5A4880ED000A5348B0
:1015600090ED010A5548D0ED0B0A30EE200AF7EE57
:10157000000A20EE200A534880ED010A4B4890ED06
:10158000020A4E48D0ED0C0A30EE200AF7EE000AAF
:1015900020EE200A4B4880ED020A90ED000AB5EEDD
:1015A000C00AF1EE10FA02DD90ED000A04E04548B1
:1015B00090ED000AB1EE400ADFED3A0A80EE201A03
:1015C000404880ED2D1A90ED010AB5EEC00AF1EE0B
:1015D00010FA02DD90ED010A04E03A4890ED010AAC
:1015E000B1EE400ADFED2F0A80EE201A354880ED7B
:1015F0002E1A90ED020AB5EEC00AF1EE10FA02DDE5
:1016000090ED020A04E02F4890ED020AB1EE400A84
:10161000DFED250A80EE201A2A4880ED2F1ADFED33
:10162000260A80EE880AD0ED160A90ED0F1AFAEE1F
:10163000041A21EE211A60EE810A20EE200A80EDC4
:101640000C0ADFED1D0A80EE880AD0ED1A0A90ED33
:10165000101AFAEE041A21EE211A60EE810A20EE29
:10166000200A80ED0D0A2FE0042C00200000FA4330
:101670001400002008000020180000203433FB4133
:1016800000000000100000200000C8420C000020F4
:101690009B0400200000AF43D40400200000484415
:1016A0005429002000009643000016433C2A0020E5
:1016B000000096C3000016C36F12033B8433002062
:1016C000482A0020902800205FED050A80EE880A55
:1016D000D0ED1E0A90ED111AFAEE041A21EE211A2D
:1016E00060EE810A20EE200A80ED0E0A90ED000ADD
:1016F000D0ED0F0A30EE600AD0ED170A60EE200A36
:1017000090ED060A00EE880A80ED060A90ED010AC7
:10171000D0ED100A30EE600AD0ED1B0A60EE200A10
:1017200090ED070A00EE880A80ED070A90ED020AA4
:10173000D0ED110A30EE600AD0ED1F0A60EE200AEB
:1017400090ED080A00EE880A80ED080AE24890ED64
:10175000000AF6EE000A20EE200A5FED2E0A20EEC7
:10176000200ADE4880ED090ADB4890ED000AF6EE1B
:10177000000A20EE200A5FED350A20EE200AD74845
:1017800080ED0A0AD44890ED000AF6EE000A20EE39
:10179000200A5FED3C0A20EE200AD04880ED0B0ABB
:1017A00090ED060AD0ED090AF1EE600AB4EEE00A07
:1017B000F1EE10FA04D290ED090AB1EE400A0FE002
:1017C000C64890ED060AD0ED090AB4EEE00AF1EE43
:1017D00010FA02DD90ED090A02E0C04890ED060A19
:1017E000BE4880ED060A90ED070AD0ED0A0AF1EE38
:1017F000600AB4EEE00AF1EE10FA04D290ED0A0AA3
:10180000B1EE400A0FE0B54890ED070AD0ED0A0AA4
:10181000B4EEE00AF1EE10FA02DD90ED0A0A02E001
:10182000AE4890ED070AAD4880ED070A90ED080A32
:10183000D0ED0B0AF1EE600AB4EEE00AF1EE10FA18
:1018400004D290ED0B0AB1EE400A0FE0A34890EDF0
:10185000080AD0ED0B0AB4EEE00AF1EE10FA02DD50
:1018600090ED0B0A02E09D4890ED080A9B4880ED40
:10187000080A90ED300AF7EE000A30EEC00AD0ED0B
:10188000150A20EE200AD0ED000A90ED0C1A70EE39
:10189000810A90ED061A70EE810A60EE200A90ED42
:1018A000301A8F48D0ED2D1A9FED8E0A9FED8E2AAB
:1018B00002EE210AB5EEC00AF1EE10FA02D21FEDD7
:1018C000900A1BE08648D0ED2D1A9FED860A9FED09
:1018D000862A02EE210AF7EE001AB4EEE10AF1EED2
:1018E00010FA02DDB7EE000A08E07D48D0ED2D1AAF
:1018F0009FED7C0A9FED7C2A02EE210A21EE000A70
:101900007A4890ED001A40EE010AB0EE000A20EE8F
:10191000800A724880ED120A90ED300AF7EE000A54
:1019200030EEC00AD0ED190A20EE200AD0ED010AEF
:1019300090ED0D1A70EE810A90ED071A70EE810A93
:1019400060EE200A90ED301A6548D0ED2E1A9FED1A
:10195000650A9FED652A02EE210AB5EEC00AF1EE96
:1019600010FA02D21FEDBA0A1BE05D48D0ED2E1A24
:101970009FED5C0A9FED5C2A02EE210AF7EE001A49
:10198000B4EEE10AF1EE10FA02DDB7EE000A08E06B
:101990005348D0ED2E1A9FED530A9FED532A02EEC5
:1019A000210A21EE000A514890ED011A40EE010A89
:1019B000B0EE000A20EE800A484880ED130A90ED50
:1019C000300AF7EE000A30EEC00AD0ED1D0A20EE14
:1019D000200AD0ED020A90ED0E1A70EE810A90ED09
:1019E000081A70EE810A60EE200A90ED301A3C4829
:1019F000D0ED2F1A9FED3B0A9FED3B2A02EE210A04
:101A0000B5EEC00AF1EE10FA02D21FEDE30A1BE0B8
:101A10003348D0ED2F1A9FED330A9FED332A02EEA3
:101A2000210AF7EE001AB4EEE10AF1EE10FA02DD37
:101A3000B7EE000A08E02A48D0ED2F1A9FED290AD8
:101A40009FED292A02EE210A21EE000A274890ED97
:101A5000021A40EE010AB1EE000A20EE800A1F4889
:101A600080ED140AB0EE480AFFF7FCFB1B48D0EDEE
:101A7000141AB0EE611AD0ED131AF0EE610AD0ED2F
:101A8000121AB0EE610AFFF781FA144890ED000ACD
:101A900080ED030A90ED010A80ED040A90ED020A40
:101AA00080ED050A124890ED0A0A124880ED000AFE
:101AB0000F4890ED0B0AB1EE400A0E4880ED010A86
:101AC0000B4890ED0C0AB1EE400A0A4880ED020A7C
:101AD00003B0BDEC028B00BD100000209028002058
:101AE000542900206666E63ECDCC0C3F3C2A0020FF
:101AF00084330020482A002070B52DED108BB0EE05
:101B0000408AB0EE60EAF0EE41EAB0EE61FAF0EE43
:101B1000429AB0EE629AF0EE438A04460D461646AB
:101B20009FEDFE0A28EE000AF3EE040A20EE200ADA
:101B3000F0EE40AAFA48D0ED080A60EEA00A90ED57
:101B4000091AD0ED091A41EE210A90ED0A1AD0EDDA
:101B50000A1A41EE210AB0EE600A01F049F9F14893
:101B600080ED000A90ED000AB5EEC00AF1EE10FA21
:101B700038D0EB48D0ED080AEA4890ED001A80EE24
:101B8000810AE948D0ED000A70EE600A90ED000A83
:101B90000AEEA00A80ED000AE148D0ED090AE1480A
:101BA00090ED001A80EE810ADF48D0ED010A70EE58
:101BB000600A90ED010A0AEEA00A80ED010AD848F9
:101BC000D0ED0A0AD74890ED001A80EE810AD64877
:101BD000D0ED020A70EE600A90ED020A0AEEA00A49
:101BE00080ED020AD14AD049D14804F01BF9CF4810
:101BF000D0ED000A60EEA00A90ED011AD0ED011AB6
:101C000041EE210AB0EE600A01F0F2F8C94880ED19
:101C1000000AC64890ED000AB5EEC00AF1EE10FACF
:101C200036D090ED010AB5EEC00AF1EE10FA2FD0D1
:101C300090ED020AB5EEC00AF1EE10FA28D0BD48C8
:101C400090ED000AB5EEC00AF1EE10FA20D0B748C8
:101C500090ED000AB748D0ED000A80EE201AB0EEF1
:101C600041BAB24890ED010AB248D0ED000A80EEC8
:101C7000201AF0EE41BAF0EE4B0AB0EE6B0A00F01B
:101C8000FCFFDFEDAD0A20EE200AAC4880ED000A33
:101C9000AB4890ED010AD0ED030A20EE200AD0ED0A
:101CA000000A90ED021A00EEC10AF0EE000A20EEE2
:101CB000200A9F4880ED000AA14890ED000AD0ED6F
:101CC000010A20EE200AD0ED020A90ED031A00EE80
:101CD000810AF0EE000A20EE200A954880ED010A04
:101CE000974890ED010A20EE000AD0ED020A90ED2F
:101CF000021A00EE810AF7EE000AB0EE001A41EE79
:101D0000400A8B48C0ED020A8E48007800285ED059
:101D10008C48007802280CD19FED8B0A8B4880ED0F
:101D2000000A9FED890A80ED010A9FED870A80ED88
:101D3000020A864890ED000A7D4890ED001ADFED1A
:101D4000841AF0EE690A41EEC10A9FED821A60EE34
:101D5000810A9FED811A00EE810A7C4880ED000A1D
:101D600090ED010A724890ED011ADFED791AF0EE5C
:101D7000490A41EEC10A9FED771A60EE810A9FED94
:101D8000761A00EE810A714880ED010A90ED020A90
:101D9000674890ED021ADFED6E1AF0EE680A41EE28
:101DA000C10A9FED6C1A60EE810A9FED6B1A00EE7E
:101DB000810A664880ED020A62480078401C614949
:101DC000087008460078522801DB002008705F4840
:101DD00090ED000A564890ED001ADFED5D1AF0EE26
:101DE000690A41EEC10A9FED5B1A11EE200A5B48B9
:101DF00080ED000A554890ED010A4D4890ED011A1A
:101E0000DFED531AF0EE490A41EEC10A9FED511A77
:101E100011EE200A514880ED010A4C4890ED020A6B
:101E2000434890ED021ADFED4A1AF0EE680A41EEDF
:101E3000C10A9FED481A11EE200A484880ED020AB7
:101E400090ED000A3A48D0ED000A20EE200A4348FF
:101E5000D0ED010A364890ED011A00EE810A3F48A4
:101E6000D0ED020A324890ED021A00EE810A3C4899
:101E700080ED020A69EEA90A49EE090A48EEA80AAD
:101E8000B0EE600A00F0B4FF364880ED000AF5EECF
:101E9000C09AF1EE10FA02DDB0EE690A01E0B1EE8F
:101EA000690ADFED310AB4EEE00AF1EE10FA7DD2F4
:101EB000B5EEC09AF1EE10FA02DDB0EE490A01E08B
:101EC000B1EE490ADFED280AB4EEE00AF1EE10FAAD
:101ED0006CD2F5EEC08AF1EE10FA02DDB0EE680ABF
:101EE00001E0B1EE680ADFED200AB4EEE00AF1EE9F
:101EF00010FA5BD21B4890ED000AC9EE800AF0EEA2
:101F0000609A90ED000AC9EE000AB0EE609A90ED7A
:101F1000000AC8EE800AF0EE608A27E0C3F5C840E8
:101F2000C0050020480000200C2B0020DC2A0020E7
:101F3000942A0020440000203333654260000020D2
:101F4000280000204C00002000000000002B002092
:101F5000000080455C201940CDCC4C3CF42A002088
:101F6000E82A0020380000200080894590ED000A12
:101F7000DFEDFE0AB4EEE00AF1EE10FA54DD90ED6A
:101F8000000A5FED070AB4EEE00AF1EE10FA4BD258
:101F9000F74890ED020A20EE090AD0ED010A08EE9A
:101FA000E00AF44880ED030AF14800E033E090EDE8
:101FB000000A20EE280AD0ED020A09EEE00AED48F8
:101FC00080ED040A1FED2B0A28EE000AF7EE000A46
:101FD00020EE20AA90ED030AD0ED060A70EE600A0A
:101FE00090ED060A0AEE200A80ED060A90ED040A3A
:101FF000D0ED070A70EE600A90ED070A0AEE200A9B
:1020000080ED070A90ED060A80ED000A90ED070AC0
:1020100080ED010A08E01FED340AD64880ED000A81
:102020001FED370A80ED010AD24890ED090AD0ED84
:10203000000A1FED3B1A60EE810AB0EE001A60EE56
:10204000810A00EE880A80ED090A90ED0A0AD0EDB7
:10205000010A1FED431A60EE810AB0EE001A60EE2D
:10206000810A00EE880A80ED0A0A90ED0B0AD0ED95
:10207000020A1FED4B1A60EE810AB0EE001A60EE04
:10208000810A00EE880A80ED0B0A90ED090ADFED67
:10209000BA0AB4EEE00AF1EE10FA02D29FEDB60AE7
:1020A0000FE0B44890ED090ADFEDB40AB4EEE00A9F
:1020B000F1EE10FA02DD9FEDB10A02E0AD4890EDBD
:1020C000090AAC4880ED090A90ED0A0ADFEDAA0A78
:1020D000B4EEE00AF1EE10FA02D29FEDA70A0FE08B
:1020E000A44890ED0A0ADFEDA50AB4EEE00AF1EE8D
:1020F00010FA02DD9FEDA10A02E09E4890ED0A0A67
:102100009C4880ED0A0A90ED0B0ADFED9B0AB4EEC5
:10211000E00AF1EE10FA02D29FED970A0FE095481F
:1021200090ED0B0ADFED950AB4EEE00AF1EE10FA3D
:1021300002DD9FED920A02E08E4890ED0B0A8D4879
:1021400080ED0B0A8A4890ED020AB5EEC00AF1EE66
:1021500010FA2ADD8A48007898B18A48D0ED000A42
:10216000894890ED001A70EEC10AB0EE600A01F0E5
:102170003DF8DFED860A20EE200A854880ED000A52
:1021800018E08048D0ED000A7F4890ED001A70EE0C
:10219000C10AB0EE600A01F029F8DFED7E0A20EEF8
:1021A000200A7B4880ED000A04E01FED990A784878
:1021B00080ED000A6F4890ED000AD0ED090A30EE7C
:1021C000200ADFED750A20EE200A694890ED001A1A
:1021D0006F48D0ED001AF0EE4E0A41EE610A9FED15
:1021E0006F1A00EE810A634880ED0C0A90ED010A37
:1021F000D0ED0A0A30EE200ADFED670A20EE200A51
:102200005B4890ED011A6248D0ED001AF0EE6E0ABC
:1022100041EE610A9FED611A00EE810A554880ED9A
:102220000D0A5348D0ED020A594890ED001AB0EE5D
:102230004F0A00EEC10ADFED590A20EE200A4D4890
:1022400080ED0E0A564890ED010AB1EE400A494869
:10225000D0ED0C0A20EE200A5148D0ED020A454884
:1022600090ED0D1A00EEC10A4D48D0ED030A414829
:1022700090ED0E1A00EEC10A4948D0ED000A40EE7A
:10228000080AC0ED000A90ED000A3A48D0ED0C0AA9
:1022900020EE200A4248D0ED020A364890ED0E1A90
:1022A00000EE810A3E48D0ED030A324890ED0D1A47
:1022B00000EEC10A3A48D0ED010A40EE080AC0ED2E
:1022C000010A90ED000A2B48D0ED0D0A20EE200AFD
:1022D0003348D0ED010A274890ED0E1A00EEC10AEE
:1022E0002F48D0ED030A234890ED0C1A00EE810A26
:1022F0002B48D0ED020A40EE080AC0ED020A90ED2C
:10230000000A1C48D0ED0E0A20EE200A2448D0ED29
:10231000010A184890ED0D1A00EE810A2048D0ED10
:10232000020A144890ED0C1A00EEC10A1C48D0EDC8
:10233000030A40EE080AC0ED030AD0ED000A60EE81
:10234000A00A90ED011AD0ED011A41EE210A90ED9C
:10235000021AD0ED021A41EE210A90ED031AD0EDD7
:10236000031A41EE210AB0EE600A1BE000806D45C1
:10237000942A0020A02A002034FA0EBD34FA0E3D23
:10238000D4040020600000202400002090C2753D8D
:102390005C0000206766E63E9A99993E34FA8E3CCE
:1023A0002800002000F024FDFE4880ED000AFE48D1
:1023B00090ED000AFB48D0ED000A80EE201AFA48A2
:1023C00080ED001A90ED010AF648D0ED000A80EE8B
:1023D000201AF54880ED011A90ED020AF148D0ED7F
:1023E000000A80EE201AF04880ED021A90ED030AF0
:1023F000EC48D0ED000A80EE201AEB4880ED031A7D
:1024000090ED011A21EE011AD0ED021A90ED022A88
:1024100001EE821AF7EE001AB0EE002A42EE411ADF
:10242000F0EE610A90ED001AD0ED011A21EE211AAA
:10243000D0ED021A90ED032A01EE821AF0EE001A96
:1024400021EE211AB0EE410A00F017FCDFEDD70AA9
:1024500020EE200A84ED000AD34890ED010AD0ED69
:10246000030A20EE200AD0ED000A90ED021A00EED9
:10247000C10AF0EE000A20EE200A10EE101A0846FB
:102480000FF0F7F941EC1D0BB0EE4D0AF0EE6D0ABE
:102490000FF02AFCB0EE40CAF0EE60CA9FEDC40B0C
:1024A00053EC102B51EC1C0B0FF060F941EC1B0BA3
:1024B0000FF022FA2860BC4890ED001A21EE011AB4
:1024C000D0ED011A90ED012A01EE821AF7EE001A02
:1024D000B0EE002A52EE011AF0EE610A90ED011AF8
:1024E000B1EE411AD0ED021A21EE211AD0ED001AF8
:1024F00090ED032A01EEC21AF0EE001A21EE211A25
:10250000B0EE410A00F0B9FBDFEDA80A20EE200A88
:1025100086ED000ABDEC108B70BDF0EE400AF6EEC1
:10252000001A60EEA11AB0EE611AB0EE600A10EE69
:10253000100AA149A1EB600000EE100A21EE002A6A
:10254000F7EE081A42EE401A61EE801AB0EE610A08
:10255000704770B52DED108B9EB0F0EE408AB0EE56
:1025600060AAF0EE41AAB0EE61BAB0EE42DAB0EE87
:1025700062CAF0EE43CA04460D4616468A4890EDFC
:10258000000A20EE000A8DED0C0A90ED000AD0ED55
:10259000010A20EE200A8DED0B0A90ED000AD0ED25
:1025A000020A20EE200AF0EE40DA90ED000AD0EDAB
:1025B000030A20EE200A8DED0A0A90ED010A20EEB2
:1025C000000A8DED090A90ED010AD0ED020A20EE15
:1025D000200A8DED080A90ED010AD0ED030A20EEE5
:1025E000200AB0EE40EA90ED020A20EE000AF0EE7A
:1025F00040EA90ED020AD0ED030A20EE200A8DEDAC
:10260000070A90ED030A20EE000A8DED060A1FED81
:102610009D0A2AEE000AB0EE40AA1FEDA00A2AEE9B
:10262000800AF0EE40AA1FEDA30A2BEE000AB0EEDE
:1026300040BA624890ED080AF0EE40BA90ED090AFF
:10264000B0EE409A90ED0A0AF0EE409A6DEE0D0A57
:102650004CEE0C0A4CEEAC0AB0EE600AFFF75DFFE0
:10266000B0EE408A2DEE080AB0EE40DA2CEE080AF1
:10267000B0EE40CA2CEE880AF0EE40CA6BEEAB0A10
:1026800049EE090A49EEA90AB0EE600AFFF745FFD4
:10269000B0EE408A2BEE880AF0EE40BA29EE080A26
:1026A000B0EE409A29EE880AF0EE409AB0EE000AA9
:1026B0006BEE800AB6EE000A30EE6E1A9DED060A49
:1026C00031EE400A20EE800AF0EE000A69EE201A90
:1026D000DDED080A9DED0A1A70EEC10A01EEA00AAE
:1026E000F0EE000A69EEA00A3EEE2D1A00EE810A15
:1026F0008DED1C0AB0EE000A2BEE801A9DED080A43
:10270000DDED0A0A30EE200A21EE000AF0EE000AA2
:1027100029EE201ADDED090AF6EE001A71EEE01A34
:10272000DDED060A71EEE00A01EE200AF0EE000A85
:1027300069EEA01ADDED070A9DED0B1A70EEC10AD5
:1027400001EEA00A8DED1B0AB0EE000A2BEE800A06
:102750007EEE6D0A20EE200AF0EE000A69EE201AE5
:10276000DDED070A9DED0B1A70EE810A01EEA00A5D
:10277000F0EE000A29EEA01ADDED090AF6EE001AC5
:1027800071EEE00A70EEEE0A01EE200AB0EE40FAB9
:102790009DED1C0A60EE000A9DED1B0A40EE000A4A
:1027A0000EE000003C00002028000020333365428A
:1027B0000000006066A64C40DF59375FC00500206E
:1027C00010EE901A08460FF054F8CDE902019DED85
:1027D000020B0FF039FC8DED040B9DED040B51EC59
:1027E000100B0FF089F81A908DED19FA3EEE6D0A74
:1027F000F0EE000A20EE200A8DED180A9DED0B0A7E
:10280000DDED070A30EE200AF0EE000A20EE200A85
:102810008DED170A9DED0C0ADDED090A30EE600A18
:1028200070EE6E0A9DED060A30EE800A8DED160AF6
:102830009DED1A0AF0EE000A60EE200AB6EE000ADC
:1028400030EE6E1A9DED060A31EE400A20EE800A47
:102850009DED19FAF0EE000A6FEE200A3EEE6D1AB9
:1028600000EE810A8DED150A9DED1A0AF0EE000AC0
:1028700020EE201A9DED080ADDED0A0A30EE600A0E
:1028800021EE000A9DED19FAF0EE000A6FEE201A13
:10289000DDED0B0A9DED071A70EE810A01EEA00A2C
:1028A0008DED140A9DED1A0AF0EE000A20EE200AC2
:1028B0007DEE8E0A20EE200A9DED19FAF0EE000A58
:1028C0002FEE201ADDED090AF6EE001A71EEE00A8D
:1028D00070EEEE0A01EE200A8DED130A9DED160A48
:1028E0002CEE000ADDED170A0CEEE00ADDED130A0E
:1028F00029EE201ADDED140A09EEE01A30EE010A85
:102900008DED120A9DED180A6CEE800A9DED160AF7
:102910004DEE400A9DED150A29EE801A9DED130A31
:102920000BEEC01A30EE810A8DED110A9DED170AEB
:102930002DEE000ADDED180A0CEE600ADDED140A3A
:102940002BEEA01ADDED150A09EE601A30EE010A31
:102950008DED100A9DED120AB5EEC00AF1EE10FAE7
:1029600061D09DED110AB5EEC00AF1EE10FA5AD011
:102970009DED100AB5EEC00AF1EE10FA53D09DEDB0
:10298000120ADFEDAF0A60EE200AAE4890ED000AB1
:1029900000EEA80A80ED000A9DED110ADFEDA80AFD
:1029A00060EE200AA84890ED000A00EEA80A80ED2B
:1029B000000A9DED100ADFEDA20A60EE200AA3488E
:1029C00090ED000A00EEA80A80ED000A9DED120AC3
:1029D000B0EE001AF0EE4A0A41EE000A994890ED76
:1029E000000A30EE800AB0EE40AA9DED110AB0EE6A
:1029F000001AF0EE6A0A41EE000A934890ED000AD0
:102A000030EE800AF0EE40AA9DED100AB0EE001AFA
:102A1000F0EE4B0A41EE000A8C4890ED000A30EED1
:102A2000800AB0EE40BA8A4890ED010AB1EE400A41
:102A300020EE0A0AD0ED020A00EEEA0A90ED031A2F
:102A4000F0EE400A41EE4B0A90ED000A00EEA80AB3
:102A50008DED0F0A90ED000A20EE0A0AD0ED020A71
:102A600000EE8B0AD0ED030A00EEEA0AD0ED010A6F
:102A7000F0EE60FA40EE28FA90ED000A20EE2A0A05
:102A8000D0ED010A00EECB0A90ED031AF0EE400AF9
:102A900041EE0A0A90ED020A00EEA80A8DED0E0A38
:102AA00090ED000A20EE0B0AD0ED010A00EEAA0A12
:102AB00090ED021AF0EE400A41EE4A0A90ED030A48
:102AC00000EEA80A8DED0D0ADDED0F0A20EEA01A2A
:102AD0000FEEAF1ADDED0E0A00EEA01ADDED0D0AC5
:102AE00000EEA01AB0EE410AFFF717FDB0EE408AE3
:102AF0009DED0F0A20EE080A554880ED000A2FEEE2
:102B0000880A80ED010A9DED0E0A20EE080A80ED8C
:102B1000020A9DED0D0A20EE080A80ED030A90EDF1
:102B2000011A21EE011AD0ED021A90ED022A01EEEF
:102B3000821AF7EE001AB0EE002A42EE411AF0EEC9
:102B4000610A90ED001AD0ED011A21EE211AD0EDA4
:102B5000021A90ED032A01EE821AF0EE001A21EE1D
:102B6000211AB0EE410A00F088F85FEDF00A20EE7D
:102B7000200A84ED000A364890ED010AD0ED030AE0
:102B800020EE200AD0ED000A90ED021A00EEC10AF4
:102B9000F0EE000A20EE200A10EE101A08460EF0A1
:102BA00068FECDE900019DED000B0FF09DF88DED65
:102BB000020B9FED280B53EC102B9DED020B51ECFB
:102BC000100B0EF0D3FDCDE904019DED040B51EC8B
:102BD000100B0EF091FE28601D4890ED001A21EEBA
:102BE000011AD0ED011A90ED012A01EE821AF7EEDA
:102BF000001AB0EE002A52EE011AF0EE610A90EDD2
:102C0000011AB1EE411AD0ED021A21EE211AD0EDCF
:102C1000001A90ED032A01EEC21AF0EE001A21EE1E
:102C2000211AB0EE410A00F028F8DFED0C0A20EE80
:102C3000200A86ED000A1EB0BDEC108B70BD0000AE
:102C4000CDCCCC3D50000020540000205800002086
:102C5000280000200000006066A64C403333654227
:102C6000F0EE400AF5EEC00AF1EE10FA02DBB0EE2B
:102C7000600A7047B1EE600AFBE700B5B0EE403A7B
:102C8000B0EE602AB5EEC03AF1EE10FA04D0B5EE1F
:102C9000C02AF1EE10FA02D19FEDFB1A99E0B0EED6
:102CA000430AFFF7DDFFF0EE403AB0EE420AFFF7CD
:102CB000D7FFF0EE402AF4EEE23AF1EE10FA02D23B
:102CC00083EEA24A01E082EEA34A9FEDF00AB4EE41
:102CD000C04AF1EE10FA02D2F0EE441A2DE0DFED18
:102CE000EC0AB6EE000A14EE200AF0EE404ABDEE01
:102CF000E40A10EE100A00EE100AB8EEC00A34EE34
:102D0000C00AF0EE404AE34901EB800191ED000A70
:102D1000F0EE401ADF4A411C02EB810191ED000AFE
:102D2000114601EB8001D1ED000A70EE600AB0EEB1
:102D3000610A00EEA40AF0EE401AF4EEE32AF1EE86
:102D400010FA20DDB5EEC02AF1EE10FA0ADBB5EE7E
:102D5000C03AF1EE10FA02DBB0EE611A39E0B1EEE2
:102D6000611A36E09FEDCC1AB5EEC03AF1EE10FADA
:102D700004DB31EE610AB0EE401A2AE031EEC10AFE
:102D8000B0EE401A25E0B5EEC03AF1EE10FA10DBD5
:102D90009FEDC21AB5EEC02AF1EE10FA04DB31EE57
:102DA000610AB0EE401A14E031EE210AB0EE401A8A
:102DB0000FE09FEDBB1AB5EEC02AF1EE10FA04DB6E
:102DC00031EE210AB0EE401A03E031EE610AB0EEB6
:102DD000401AB0EE410A00BD00B5B0EE405AF0EE28
:102DE000605AF0EE450AB0EE650AFFF746FF00BDF7
:102DF000B0EE401AB7EE080AB0EE402AB6EE000A6E
:102E000021EE000AF0EE401AF0EE410A10EE900AB0
:102E1000A449A1EB600000EE900A61EEA02AB7EE93
:102E2000080A02EEE00A20EE200AF0EE400A61EE07
:102E3000A02AB7EE080A02EEE00A20EE200AF0EE21
:102E4000400A21EE200A704710B52DED0A8BB0EE36
:102E5000409AF0EE609A9FED940B53EC102B51ECDE
:102E6000190B0EF019FD18D29FED910B53EC102B9E
:102E700051EC190B0EF07AFC41EC1B0B9FED8E0B05
:102E800053EC102B0EF0CBFB41EC1A0B53EC192B2F
:102E90000EF06CFC41EC180B17E09FED850B53EC2A
:102EA000102B51EC190B0EF061FC41EC1B0B9FED4C
:102EB000820B53EC102B0EF056FC41EC1A0B53EC2A
:102EC000192B0EF053FC41EC180B9FED770B53ECD4
:102ED000102B51EC180B0EF0DFFC20D29FED780B7D
:102EE00053EC102B51EC180B0EF099FB41EC1C0B22
:102EF0009FED750B53EC102B0EF038FC41EC1B0BC7
:102F00009FED6F0B53EC102B0EF089FB41EC1A0B6D
:102F100053EC182B0EF02AFC41EC180B1FE09FED30
:102F2000680B53EC102B51EC180B0EF019FC41EC14
:102F30001C0B9FED670B53EC102B0EF017FC41ECB4
:102F40001B0B9FED5F0B53EC102B0EF068FB41EC5D
:102F50001A0B53EC182B0EF009FC41EC180BB0EED9
:102F6000480AF0EE680ABDEC0A8B10BD10B52DEDD5
:102F7000068BB0EE408AF0EE608A01249FED560B7E
:102F800053EC102B51EC180B0EF09EFC0AD89FED61
:102F9000520B53EC102B51EC180B0EF0E1FB41ECF3
:102FA000180BA41E20460EF053FC41EC190BB0EE9A
:102FB000480AF0EE680AFFF747FFB0EE40AAF0EECD
:102FC00060AA53EC192B51EC1A0B0EF0CFFB41EC1D
:102FD000100BBDEC068B10BD10B52DED088BB0EEBF
:102FE000408AF0EE608A01249FED3D0B53EC102BDC
:102FF00051EC180B0EF013FB41EC180B9FED360B48
:1030000053EC102B51EC180B0EF05EFC0AD8A41EEA
:103010009FED310B53EC102B51EC180B0EF0A0FB75
:1030200041EC180B20460EF013FC41EC1A0BB0EEED
:10303000480AF0EE680AFFF799FFB0EE40BAF0EEEA
:1030400060BA53EC1A2B51EC1B0B0EF08FFB41ECCA
:10305000190B0EF051FC00EE100ABDEC088B10BDF0
:10306000B0EE401AB5EEC01AF1EE10FA3CDD31EECA
:10307000600AB5EEC00AF1EE10FA37D2DFED021A9F
:10308000B0EE610A32E00000000000008180803B69
:103090000000804364000020DB0F4940DB0FC93F84
:1030A000DB0FC9BFDF59375F0000000000000000E0
:1030B000000000602FF0D93F00000060305FF43F57
:1030C000000000000000F03F000000C0CCCCCCBFEE
:1030D000000000C0CCCCCC3FF1D4C853FB21094048
:1030E000F1D4C853FB21F93FB0EE410A7047B0EE6E
:1030F000401AB5EEC01AF1EE10FA0BD231EE200AEA
:10310000B5EEC00AF1EE10FA06DD5FED211AB0EE61
:10311000610A01E0B0EE410A7047F0EE401AF4EEA9
:10312000E01AF1EE10FA09DD31EEC10AB4EEE00A60
:10313000F1EE10FA0BD2B0EE600A08E031EE810A2F
:10314000B4EEE00AF1EE10FA01DDB0EE600A70476D
:10315000F0EE401AB1EE412A32EE202AB4EEE12A16
:10316000F1EE10FA09D231EE202AB4EEE12AF1EEA6
:1031700010FA02DDB0EE600A01E0B0EE610A7047BD
:1031800010B52DED028BB0EE408AF0EE608A9FED17
:10319000730B53EC102B51EC180B0EF095FB0CD26B
:1031A0009FED700B53EC102B51EC180B0EF0D8FA6E
:1031B00041EC100BBDEC028B10BD9FED6C0B53EC82
:1031C000102B51EC180B0EF067FB0AD29FED650B2C
:1031D00053EC102B51EC180B0EF021FA41EC100BB4
:1031E000E8E7B0EE480AF0EE680AE3E7F0EE400ADE
:1031F0009FED600AF4EEC00AF1EE10FA04DD9FEDD7
:103200005E0A30EEC00A70479FED5C0AF4EEC00A19
:10321000F1EE10FA04D29FED580A30EE800AF2E780
:10322000B0EE600AEFE7F0EE400AF5EEC00AF1EE0C
:1032300010FA02DDB0EE600A01E0B1EE600A90ED36
:10324000041AB4EEC10AF1EE10FA0CDDF5EEC00A74
:10325000F1EE10FA04D291ED040AB1EE400A704783
:1032600091ED040AFBE7F5EEC00AF1EE10FA02DD7B
:10327000B0EE600A01E0B1EE600A90ED031AB4EE20
:10328000C10AF1EE10FA0CDDF5EEC00AF1EE10FA0B
:1032900004D291ED030AB1EE400AE0E791ED030A92
:1032A000DDE7F5EEC00AF1EE10FA02DDB0EE600ADD
:1032B00001E0B1EE600A90ED021AB4EEC10AF1EE3F
:1032C00010FA0CDDF5EEC00AF1EE10FA04D291ED21
:1032D000020AB1EE400AC2E791ED020ABFE7F5EE3D
:1032E000C00AF1EE10FA02DDB0EE600A01E0B1EEC4
:1032F000600A90ED011AB4EEC10AF1EE10FA0CDD8D
:10330000F5EEC00AF1EE10FA04D291ED010AB1EE29
:10331000400AA4E791ED010AA1E7F5EEC00AF1EE3B
:1033200010FA02DDB0EE600A01E0B1EE600A90ED45
:10333000001AB4EEC10AF1EE10FA0CDDF5EEC00A87
:10334000F1EE10FA04D291ED000AB1EE400A86E7E0
:1033500091ED000A83E71FEDB40A80E7000000004A
:103360000080664000000000008076400000000001
:10337000008066C0000034430000B443000034C342
:1033800070B505460C462146FE4806F046F870BD6D
:1033900070B504460D46AA20FA4908704870EF201F
:1033A00088700220C870084604714571002600200C
:1033B00005E0F449095C3144CEB2411CC8B206288C
:1033C000F7DBF04886710721FFF7DAFF70BD70B5B3
:1033D00004460D46AA20EB4908704870EE2088701C
:1033E0000220C8700846047145710026002005E0DF
:1033F000E449095C3144CEB2411CC8B20628F7DB6F
:10340000E04886710721FFF7BBFF70BD2DE9F0434F
:103410002DED028B83B005460E4617469846B0EE5A
:10342000408A0024AA222146641CD64842542146E0
:10343000641C425404222146641C4254002221464A
:10344000641C42542146641C45542146641C465465
:1034500001979DF807202146641C42549DF80620E0
:103460002046611CCCB2C7490A549DF8052020466D
:10347000611CCCB2C3490A549DF804202046611C4B
:10348000CCB2C0490A54CDF804809DF807202046EC
:10349000611CCCB2BB490A549DF806202046611C31
:1034A000CCB2B8490A549DF805202046611CCCB224
:1034B000B4490A549DF804202046611CCCB2B1499D
:1034C0000A549FEDB10A28EE000ABDEEC00A10EEC4
:1034D000100A00B202909DF809202046611CCCB26F
:1034E000A8490A549DF808202046611CCCB2A54981
:1034F0000A54201FC8704FF00009002006E0A149BF
:10350000095C494401F0FF09411CC8B2A042F6DB46
:103510002046611CCCB29B4901F800902146994895
:10352000FFF72EFF03B0BDEC028BBDE8F08370B552
:103530002DED0A8B82B00546B0EE408AF0EE608A2F
:10354000B0EE419AF0EE619AB0EE42AAF0EE62AAB5
:10355000B0EE43BAF0EE63BAB0EE44CA0024AA2239
:103560002146641C874842542146641C425405F19C
:103570000F00C2B22146641C8248425400222146F8
:10358000641C42549FED810A28EE000ABDEEC00A79
:1035900010EE100A00B201909DF805202146641C2F
:1035A000784842549DF804202146641C42549FED03
:1035B000770A28EE800ABDEEC00A10EE100A00B2AB
:1035C00001909DF805202146641C6E4842549DF8E8
:1035D00004202046611CCCB26A490A549FED6B0A54
:1035E00029EE000ABDEEC00A10EE100A00B20190EA
:1035F0009DF805202046611CCCB262490A549DF812
:1036000004202046611CCCB25E490A549FED5F0A3B
:1036100029EE800ABDEEC00A10EE100A00B2019039
:103620009DF805202046611CCCB256490A549DF8ED
:1036300004202046611CCCB252490A549FED530A23
:103640002AEE000ABDEEC00A10EE100A00B2019088
:103650009DF805202046611CCCB24A490A549DF8C9
:1036600004202046611CCCB246490A549FED470A0B
:103670002AEE800ABDEEC00A10EE100A00B20190D8
:103680009DF805202046611CCCB23E490A549DF8A5
:1036900004202046611CCCB23A490A549FED3B0AF3
:1036A0002BEE000ABDEEC00A10EE100A00B2019027
:1036B0009DF805202046611CCCB232490A549DF881
:1036C00004202046611CCCB22E490A549FED2F0ADB
:1036D0002BEE800ABDEEC00A10EE100A00B2019077
:1036E0009DF805202046611CCCB226490A549DF85D
:1036F00004202046611CCCB222490A549FED230AC3
:103700002CEE000ABDEEC00A10EE100A00B20190C5
:103710009DF805202046611CCCB21A490A549DF838
:1037200004202046611CCCB216490A54201FC870E0
:103730000026002005E01349095C3144CEB2411C4B
:10374000C8B2A042F7DB2046611CCCB20D490E5432
:1037500021460C48FFF714FE02B0BDEC0A8B70BD89
:10376000F8B505460E460024AA222146641C0548E9
:1037700042542146641C425405222146641C425492
:10378000002205E02C2B00200000C84200007A44F3
:103790002146641C425400959DF801202146641C7A
:1037A00042549DF800202146641C425400969DF826
:1037B00001202146641C42549DF800202146601CD3
:1037C000C4B2FE484254201FFC49C87000270020A4
:1037D00005E0FA49095C3944CFB2411CC8B2A042A5
:1037E000F7DB2046611CCCB2F4490F542146F34864
:1037F000FFF7C6FDF8BD7FB50024AA222146641C50
:10380000EE4842542146641C425406222146641C60
:10381000425400222146641C42549DF80120214656
:10382000641C42549DF800202146641C42549DF8BB
:1038300005202146641C42549DF804202046611C4A
:10384000CCB2DE490A549DF809202046611CCCB256
:10385000DA490A549DF808202046611CCCB2D749A9
:103860000A549DF80D202046611CCCB2D3490A545D
:103870009DF80C202146601CC4B2D04842549DF8EB
:1038800021202046611CCCB2CC490A549DF820204E
:103890002046611CCCB2C9490A549DF82520204617
:1038A000611CCCB2C5490A549DF824202046611CF5
:1038B000CCB2C2490A549DF829202046611CCCB2E2
:1038C000BE490A549DF828202046611CCCB2BB4951
:1038D0000A549DF82D202046611CCCB2B7490A54E9
:1038E0009DF82C202046611CCCB2B4490A54201FFC
:1038F000C8700025002005E0B049095C2944CDB21C
:10390000411CC8B2A042F7DB2046611CCCB2AB49D7
:103910000D542146A948FFF733FD7FBD7FB5002434
:10392000AA222146641CA54842542146641C4254E4
:1039300003222146641C425400222146641C425446
:103940009DF801202146641C42549DF80020214628
:10395000641C42549DF805202146641C42549DF885
:1039600004202046611CCCB294490A549DF80920D9
:103970002046611CCCB291490A549DF8082020468B
:10398000611CCCB28D490A549DF80D202046611C63
:10399000CCB28A490A549DF80C202046611CCCB256
:1039A00086490A549DF821202046611CCCB28349E7
:1039B0000A549DF820202146601CC4B27F4842541E
:1039C0009DF825202046611CCCB27C490A549DF804
:1039D00024202046611CCCB278490A549DF8292045
:1039E0002046611CCCB275490A549DF82820204617
:1039F000611CCCB271490A549DF82D202046611CEF
:103A0000CCB26E490A549DF82C202046611CCCB2E1
:103A10006A490A549DF831202046611CCCB267499E
:103A20000A549DF830202046611CCCB263490A54E8
:103A30009DF835202046611CCCB260490A549DF89F
:103A400034202046611CCCB25C490A54201FC87047
:103A50000025002005E05949095C2944CDB2411CEC
:103A6000C8B2A042F7DB2046611CCCB253490D54CA
:103A700021465248FFF784FC7FBD73B50024AA227B
:103A80002146641C4D4842542146641C425407227E
:103A90002146641C425400222146641C42549DF875
:103AA00003202146641C42549DF802202146641CD8
:103AB00042549DF801202146641C42549DF8002088
:103AC0002046611CCCB23D490A549DF80520204691
:103AD000611CCCB239490A549DF804202046611C6F
:103AE000CCB236490A54201FC8700025002005E0DA
:103AF0003249095C2944CDB2411CC8B2A042F7DB6F
:103B00002046611CCCB22D490D5421462B48FFF7AD
:103B100037FC7CBD2DE9F84F05460E461746984602
:103B2000DDE90AAB0024AA222146641C2348425442
:103B30002146641C425402222146641C4254002245
:103B40002146641C425400959DF801202146641CC6
:103B500042549DF800202146641C425400969DF872
:103B600001202146641C42549DF800202146601C1F
:103B7000C4B21248425400979DF801202046611CAF
:103B8000CCB20E490A549DF800202046611CCCB2EC
:103B90000A490A54CDF800809DF801202046611C96
:103BA000CCB206490A549DF800202046611CCCB2D4
:103BB00002490A54CDF800A002E000002C2B00209E
:103BC0009DF801202046611CCCB2FE490A549DF8A4
:103BD00000202046611CCCB2FA490A54CDF800B04E
:103BE0009DF801202146601CC4B2F64842549DF85D
:103BF00000202146601CC4B2F24842540C98009048
:103C00009DF801202046611CCCB2EE490A549DF873
:103C100000202046611CCCB2EA490A540D9800905D
:103C20009DF801202046611CCCB2E6490A549DF85B
:103C300000202046611CCCB2E2490A540E98009044
:103C40009DF801202046611CCCB2DE490A549DF843
:103C500000202046611CCCB2DA490A5400200090B2
:103C60009DF801202046611CCCB2D6490A549DF82B
:103C700000202046611CCCB2D2490A54201FC870D3
:103C80004FF00009002006E0CE49095C494401F0EC
:103C9000FF09411CC8B2A042F6DB2046611CCCB231
:103CA000C84901F800902146C648FFF769FBBDE806
:103CB000F88F38B50024AA222146641CC14842541A
:103CC0002146641C4254F1222146641C42540022C5
:103CD0002146641C4254012000909DF80120214699
:103CE000641CB84842549DF800202146641C42548C
:103CF000022000909DF801202146641CB1484254E6
:103D00009DF800202046611CCCB2AE490A54032025
:103D100000909DF801202046611CCCB2A9490A54AC
:103D20009DF800202046611CCCB2A6490A5404200C
:103D300000909DF801202046611CCCB2A1490A5494
:103D40009DF800202046611CCCB29E490A540520F3
:103D500000909DF801202046611CCCB299490A547C
:103D60009DF800202046611CCCB296490A54964822
:103D7000008800EB8000400000B200909DF8012018
:103D80002046611CCCB28F490A549DF80020204681
:103D9000611CCCB28B490A548C4890ED020ADFEDCD
:103DA0008C0A20EE200ABDEEC00A10EE100A00B206
:103DB00000909DF801202046611CCCB281490A5434
:103DC0009DF800202046611CCCB27E490A54201F79
:103DD000C8700025002005E07A49095C2944CDB26D
:103DE000411CC8B2A042F7DB2046611CCCB2754929
:103DF0000D5421467348FFF7C3FA38BD30B52DED99
:103E0000048B81B0B0EE408AF0EE608AB0EE419A49
:103E10000024AA222146641C6A4842542146641C9C
:103E200042540B222146641C425400222146641C49
:103E300042549FED680A28EE000ABDEEC00A10EE5B
:103E4000100A00B200909DF801202146641C5D48D4
:103E500042549DF800202146641C42549FED5D0AA7
:103E600028EE800ABDEEC00A10EE100A00B20090E3
:103E70009DF801202146641C524842549DF80020C0
:103E80002046611CCCB24F490A549FED520A29EEDC
:103E9000000ABDEEC00A10EE100A00B200909DF8B4
:103EA00001202046611CCCB246490A549DF80020EE
:103EB0002046611CCCB243490A54201FC87000251B
:103EC000002005E03F49095C2944CDB2411CC8B23D
:103ED000A042F7DB2046611CCCB23A490D54214682
:103EE0003848FFF74DFA01B0BDEC048B30BD2DE929
:103EF000F0412DED048B82B0B0EE408AF0EE608A86
:103F0000B0EE419A05460E46174600240095AA22B7
:103F10002146641C2B4842542146641C4254012211
:103F20002146641C425400222146641C42549FEDE9
:103F30002A0A28EE000ABDEEC00A10EE100A00B2EE
:103F400001909DF805202146641C1E4842549DF8AE
:103F500004202146641C42549FED1F0A28EE800A6B
:103F6000BDEEC00A10EE100A00B201909DF80520C7
:103F70002146641C134842549DF804202046611CCD
:103F8000CCB210490A549FED140A29EE000ABDEE86
:103F9000C00A10EE100A00B201909DF805202046DC
:103FA000611CCCB207490A549DF804202046611CCC
:103FB000CCB204490A549DF803202046611CCCB2BF
:103FC00000490BE02C2B00208C3D0020942A00207F
:103FD00000401C46CDCCCC3D0000C8420A549DF8A0
:103FE00002202046611CCCB2F9490A549DF80120F8
:103FF0002046611CCCB2F6490A549DF800202146A7
:10400000601CC4B2F24842542046611CCCB2F04954
:104010000E542046611CCCB2ED490F54201FC870CD
:104020004FF00008002006E0E949095C414401F036
:10403000FF08411CC8B2A042F6DB2046611CCCB28E
:10404000E34901F800802146E148FFF799F902B001
:10405000BDEC048BBDE8F0817FB505460024AA22A3
:104060002146641CDA4842542146641C4254002212
:104070002146641C42542146641C42542146641C5F
:1040800045549DF805202146641C42549DF80420A7
:104090002146641C42549DF809202046611CCCB284
:1040A000CB490A549DF808202046611CCCB2C8496F
:1040B0000A549DF80D202046611CCCB2C4490A5414
:1040C0009DF80C202046611CCCB2C1490A549DF8D1
:1040D00021202046611CCCB2BD490A549DF8202005
:1040E0002046611CCCB2BA490A54201FC870002671
:1040F000002005E0B649095C3144CEB2411CC8B28B
:10410000A042F7DB2046611CCCB2B1490E542146D7
:10411000AF48FFF735F97FBD10B586B0AD480078E0
:10412000AD49097890FBF1F201FB1201AA48007831
:10413000401E814202D10120A8494871A54800785B
:10414000A749097890FBF1F201FB1201A44800781D
:10415000401E814202D10120A04988719D4800780B
:10416000A049097890FBF1F201FB12019D4800780B
:10417000801E814202D101209849487495480078F8
:104180009949097890FBF1F201FB120196480078F9
:10419000401E814202D10120904908718D4800786B
:1041A0009249097890FBF1F201FB12018F480078E7
:1041B000401E814202D10120884948738548007819
:1041C0008B49097890FBF1F201FB120188480078D5
:1041D000801E814202D101208049C8737D48007849
:1041E0008449097890FBF1F201FB120181480078C3
:1041F000801E814202D101207849087475480078F8
:104200007D49097890FBF1F201FB12017A480078B0
:10421000C01E814202D10120704988746D48007827
:104220007649097890FBF1F201FB1201734800789E
:10423000C01E814204D16948C07C401C6749C874D3
:1042400064480078401CC0B262490870C82801DD8B
:10425000002008706148007838B1604A51781078C1
:10426000FFF7B5F800205D4908705C48807848B1D8
:1042700000205A4988706248017862480078FFF748
:1042800087F83AE25548C07860B100205349C870B9
:104290004FF4C87364224FF4967100900420FFF726
:1042A000DBFE2AE24D48007990B100204B490871AD
:1042B0005548027800210846544B93ED001A544BA0
:1042C000D3ED000A534B93ED000AFFF710FE14E202
:1042D0004248807C68B10020404988741FEDC21AB2
:1042E0004D48D0ED000A4D4890ED000AFFF786FDDD
:1042F00003E23A48407C28B1002038494874FFF76F
:10430000D8FCFAE135484079E8B3002033494871D8
:10431000434890ED0A0ABDEEC00A10EE100A02B240
:104320003F4890ED090ABDEEC00A10EE100A01B236
:104330003B4890ED080ABDEEC00A10EE100A00B22C
:10434000384B93ED090ABDEEC00A10EE103A1BB2CD
:10435000CDE90130CDE90312324890ED080ABDEEF7
:10436000C00A10EE100A00B22E4C009094ED070A1D
:10437000BDEEC00A10EE104A23B22A4C94ED060A94
:10438000BDEEC00A00E015E010EE104A22B2254C46
:1043900094ED050ABDEEC00A10EE104A21B2214C80
:1043A00094ED040ABDEEC00A10EE104A20B2FFF7E9
:1043B000B1FBA2E10948807948B100200749887122
:1043C0001948008881B20020FFF757FB95E12DE0E6
:1043D0002C2B00207E0400207F040020182B0020BE
:1043E0008004002081040020820400208304002037
:1043F0008404002085040020860400208704002017
:104400006904002068040020D40400202400002057
:10441000200000201C000020700400206C040020FC
:10442000C0050020843300208C3D0020FE48407BE6
:1044300090B30020FC49487340F2DC52FB48C0892D
:1044400000F2DC5080B2F949898901F2DC5189B26D
:10445000CDE90302F54805920291408900F2DC5053
:1044600080B2F3490988F14CCDE90010648804F268
:10447000DC54A3B2ED4C248804F2DC54A2B2EB4C21
:10448000E48804F2DC54A1B2E84CA48804F2DC54C1
:10449000A0B2FFF743FA30E1FFE7E348C07B48B33F
:1044A0000020E149C873009001900290E14C039014
:1044B00094ED030ABCEEC00A10EE104AA3B2DD4C24
:1044C00094ED020ABCEEC00A10EE104AA2B2D94C1A
:1044D00094ED010ABCEEC00A10EE104AA1B2D54C10
:1044E00094ED000ABCEEC00A10EE104AA0B2FFF72D
:1044F00082F902E1CC48007C40B10020CA4908742E
:104500004FF4E4717B20FFF72BF9F6E0C648C07941
:1045100058B30020C449C871C748D0ED1E4AB0EE58
:10452000644AD0ED1F4AF0EE643AD0ED1D4AB0EE79
:10453000643AD0ED1A4AF0EE642AD0ED1B4AB0EE90
:10454000642AD0ED194AF0EE641AD0ED164AB0EEA6
:10455000641AD0ED174AF0EE640AD0ED154AB0EEB9
:10456000640A0120FEF7E3FFC7E0AF48007A58B3C2
:104570000020AD490872B148D0ED1E4AB0EE644A41
:10458000D0ED1F4AF0EE643AD0ED1D4AB0EE643A29
:10459000D0ED1A4AF0EE642AD0ED1B4AB0EE642A40
:1045A000D0ED194AF0EE641AD0ED164AB0EE641A56
:1045B000D0ED174AF0EE640AD0ED154AB0EE640A69
:1045C0000220FEF7B4FF98E09748407A58B30020E5
:1045D000954948729A48D0ED214AB0EE644AD0ED30
:1045E000224AF0EE643AD0ED204AB0EE643AD0EDC3
:1045F0001D4AF0EE642AD0ED1E4AB0EE642AD0EDDA
:104600001C4AF0EE641AD0ED194AB0EE641AD0EDEF
:104610001A4AF0EE640AD0ED184AB0EE640A03209C
:10462000FEF785FF69E08048807AF8B100207E4976
:1046300088728348D0ED251AB0EE611AD0ED261AA3
:10464000F0EE610AD0ED241AB0EE610A9FED7D4ACA
:10465000DFED7C3A9FED7B3ADFED7A2A9FED792AF8
:10466000DFED781A0420FEF762FF46E06E48C07A5C
:10467000C0B100206C49C8729FED724ADFED713AFB
:104680009FED703ADFED6F2A9FED6E2ADFED6D1A18
:104690009FED6C1ADFED6B0A9FED6A0A0520FEF7AD
:1046A00046FF2AE06048007BC0B100205E490873E5
:1046B0009FED644ADFED633A9FED623ADFED612AD8
:1046C0009FED602ADFED5F1A9FED5E1ADFED5D0A58
:1046D0009FED5C0A0620FEF72AFF0EE05248C07CE0
:1046E00002280AD100205049C8749FED560A0023C1
:1046F0001A4619461846FEF789FE06B010BD70B579
:104700002DED048B04460E460025002004E0215CBC
:104710002944CDB2411CC8B2711E8142F7DCA019F8
:1047200010F8010CA84202D0BDEC048B70BD2078BB
:10473000AA2802D16078AF2800D0F5E7A078012838
:1047400039D12079012802D13F49087033E020791E
:10475000022803D101203C4948702CE0207903282D
:1047600004D1012038490870487024E020790428D9
:1047700003D10120354908701DE02079052813D1A7
:10478000FCF7E6F80120324908700122314806F0B2
:1047900058FD40223049314806F053FDC0222849D7
:1047A0002F4806F04EFD06E02079212802DB207913
:1047B000262800DD00BFA078022814D12079012826
:1047C00006D11949C871087248728872C872087394
:1047D0002079A02802D101201349C8702079A1288E
:1047E00001D1FBF793FFA078032859D11D48007829
:1047F000012802D0022001F00AF82079617941EA0B
:10480000002019498880A079E17941EA0020164901
:10481000C880207A617A41EA002013490880A07A92
:10482000E17A41EA002021E0182B0020D42B00205F
:1048300090040020642A00209028002054290020A1
:104840005C0700200000000084330020ED050020FC
:104850000500002000000C081C07002000000E08C6
:1048600000000A089B0400205E2B0020FE494880BF
:10487000207B617B41EA0020FB490881A07BE17B32
:1048800041EA0020F8494881207C617C41EA00200F
:10489000F5498881A07CE17C41EA0020F249C88189
:1048A000A078202802D10120F0490870A0782128A2
:1048B00002D10020ED490870A078222802D1207989
:1048C000EB490870A078242825D16079217940EA45
:1048D000012000B200EE100AB8EEC00AE54880EDF3
:1048E000000AE079A17940EA012000B200EE100A46
:1048F000B8EEC00AE04880ED000A607A217A40EA0A
:10490000012000B2DD490880E07AA17A40EA012066
:1049100000B2DB490880A07810287DD121790902F6
:1049200009B2627941EA02000CF092FF41EC190BE6
:104930009FEDD40B53EC102B0CF018FF41EC180B2F
:104940000CF0DAFFD1494865A179090209B2E27990
:1049500041EA02000CF07CFF41EC190B9FEDC90B02
:1049600053EC102B0CF002FF41EC180B0CF0C4FFC1
:10497000C649C865217A090209B2627A41EA020091
:104980000CF066FF41EC190B9FEDBE0B53EC102BA6
:104990000CF0ECFE41EC180B0CF0AEFFBB49886547
:1049A000A17A090209B2E27A41EA02000CF050FF52
:1049B00041EC190B9FEDB30B53EC102B0CF0D6FE12
:1049C00041EC180B0CF098FFB0494866217B0902B6
:1049D00009B2627B41EA02000CF03AFF41EC190B8C
:1049E0009FEDA80B53EC102B0CF0C0FE41EC180B04
:1049F0000CF082FF0146A548C166A17B090209B2FD
:104A0000E27B41EA02000CF023FF41EC190B9FED21
:104A10009D0B53EC102B00E05CE00CF0A7FE41EC8A
:104A2000180B0CF069FF014698488166217C090249
:104A300009B2627C41EA02000CF00AFF41EC190B5A
:104A40009FED900B53EC102B0CF090FE41EC180BEB
:104A50000CF052FF8D494867A17C090209B2E27C43
:104A600041EA02000CF0F4FE41EC190B9FED850BBE
:104A700053EC102B0CF07AFE41EC180B0CF03CFFC1
:104A800001468248C167217D090209B2627D41EA7F
:104A900002000CF0DDFE41EC190B9FED7A0B53EC9C
:104AA000102B0CF063FE41EC180B0CF025FF0146B7
:104AB000764881677648807838B9012074498870D3
:104AC000A0787449087074480570FBF719FE01203E
:104AD00072490880A07811287DD12179090209B294
:104AE000627941EA02000CF0B3FE41EC190B9FED34
:104AF000650B53EC102B0CF039FE41EC180B0CF04D
:104B0000FBFE67494865A179090209B2E27941EAE9
:104B100002000CF09DFE41EC190B9FED5A0B53EC7B
:104B2000102B0CF023FE41EC180B0CF0E5FE5C4959
:104B3000C865217A090209B2627A41EA02000CF0E2
:104B400087FE41EC190B9FED4F0B53EC102B0CF033
:104B50000DFE41EC180B0CF0CFFE51498865A17A8F
:104B6000090209B2E27A41EA02000CF071FE41EC5E
:104B7000190B9FED440B53EC102B0CF0F7FD41EC9F
:104B8000180B0CF0B9FE46494866217B090209B2B0
:104B9000627B41EA02000CF05BFE41EC190B9FEDD9
:104BA000390B53EC102B0CF0E1FD41EC180B0CF021
:104BB000A3FE01463A48C166A17B090209B2E27B25
:104BC00041EA02000CF044FE41EC190B9FED2D0B65
:104BD00053EC102B00E07CE00CF0C8FD41EC180B0E
:104BE0000CF08AFE01462E488166217C090209B23A
:104BF000627C41EA02000CF02BFE41EC190B9FEDA8
:104C0000210B53EC102B0CF0B1FD41EC180B0CF008
:104C100073FE23494867A17C090209B2E27C41EA9C
:104C200002000CF015FE41EC190B9FED160B53EC36
:104C3000102B0CF09BFD41EC180B0CF05DFE0146B7
:104C40001748C167217D090209B2627D41EA02006D
:104C50000CF0FEFD41EC190B9FED0A0B53EC102BF1
:104C60000CF084FD1EE000005E2B0020D404002028
:104C70009B0400206C0400207004002074040020B9
:104C800076040020FCA9F1D24D62503F902800200C
:104C9000182B0020680400206904002078040020FC
:104CA0005429002041EC180B0CF026FE0146FC486C
:104CB0008167FC48807838B90120FA498870A0786B
:104CC000F9490870F9480570FBF71AFD0120F84909
:104CD0000880A07812287CD12179090209B2627972
:104CE00041EA02000CF0B4FD41EC190B1FED1B0B67
:104CF00053EC102B0CF03AFD41EC180B0CF0FCFDC2
:104D0000EC490866A179090209B2E27941EA020098
:104D10000CF09EFD41EC190B1FED260B53EC102BF4
:104D20000CF024FD41EC180B0CF0E6FDE14988661F
:104D3000217A090209B2627A41EA02000CF088FD88
:104D400041EC190B1FED310B53EC102B0CF00EFD49
:104D500041EC180B0CF0D0FDD6494866A17A090247
:104D600009B2E27A41EA02000CF072FD41EC190B43
:104D70001FED3C0B53EC102B0CF0F8FC41EC180B26
:104D80000CF0BAFDCB490867217B090209B2627BAE
:104D900041EA02000CF05CFD41EC190B1FED470BE2
:104DA00053EC102B0CF0E2FC41EC180B0CF0A4FDC2
:104DB000C0498867A17B090209B2E27B41EA02008F
:104DC0000CF046FD41EC190B1FED520B53EC102B70
:104DD00000E05CE00CF0CAFC41EC180B0CF08CFD20
:104DE000B4494867217C090209B2627C41EA0200A9
:104DF0000CF02EFD41EC190B1FED5E0B53EC102B4C
:104E00000CF0B4FC41EC180B0CF076FDA949C1F88C
:104E10008000A17C090209B2E27C41EA02000CF0A8
:104E200017FD41EC190B1FED690B53EC102B0CF027
:104E30009DFC41EC180B0CF05FFD9E49C1F8880009
:104E4000217D090209B2627D41EA02000CF000FDF9
:104E500041EC190B1FED750B53EC102B0CF086FC7D
:104E600041EC180B0CF048FD9249C1F884008D48C4
:104E7000807838B901208B498870A0788A490870F9
:104E80008A480570FBF73CFC012089490880A0781E
:104E9000132854D12179090209B2627941EA02004A
:104EA0000CF0D6FC41EC190B1FED8A0B53EC102BC8
:104EB0000CF05CFC41EC180B0CF01EFD7D49C1F8B8
:104EC0009000A179090209B2E27941EA02000CF0EE
:104ED000BFFC41EC190B1FED950B53EC102B0CF0A4
:104EE00045FC41EC180B0CF007FD7249C1F8980025
:104EF000217A090209B2627A41EA02000CF0A8FCA8
:104F000041EC190B1FEDA10B53EC102B0CF02EFCF8
:104F100041EC180B0CF0F0FC6649C1F894006148B4
:104F2000807838B901205F498870A0785E490870A0
:104F30005E480570FBF7E4FB01205D490880A0781E
:104F400014280AD15748807838B90120554988700B
:104F5000A0785549087055480570A07815280AD1E1
:104F60005048807838B901204E498870A0784E4961
:104F700008704E48057000BFFFF7D6BB10B5044659
:104F80004D48007838B9AA2C05D101204A4908704B
:104F90004A4804705DE048480078012807D1AF2CEA
:104FA00005D10220444908704448447051E0424809
:104FB0000078022807D1F12C05DA03203E49087059
:104FC0003E48847045E03C48007803280CD1322CE0
:104FD0000ADA0420384908703848C4703848047028
:104FE00000203849087034E033480078042819D18B
:104FF00033480078002815DD31480078401E3049DC
:105000000870304800782F490978491C2D4A1170E2
:10501000001D2A490C542A480078D0B90520264999
:10502000087016E02448007805280FD10020224996
:10503000087024480078001D20490C54214800784D
:10504000401DC1B21D48FFF75AFB02E000201A497B
:10505000087010BD10B504461B48007838B9AA2C5A
:1050600005D10120184908701848047076E01648E8
:105070000078012807D1AF2C05D102201249087011
:10508000124844706AE010480078022820D1F12CC0
:105090001EDA03200C4908700C4884705EE00000A2
:1050A00054290020182B00206804002069040020E7
:1050B000780400205C0700208A0400206E2B00206A
:1050C00088040020890400208D040020A02B0020EB
:1050D0002348007803280CD1322C0ADA0420204916
:1050E00008702048C4702048047000201F490870D0
:1050F00034E01B480078042819D11B4800780028A8
:1051000015DD19480078401E1749087017480078C7
:1051100016490978491C154A1170001D11490C5493
:1051200011480078D0B905200D49087016E00C48E8
:10513000007805280FD10020094908700B48007835
:10514000001D08490C5409480078401DC1B20548AB
:10515000FFF7D5FA02E000200149087010BD0000F9
:105160008D040020A02B00208B0400208C04002044
:105170000246002007E0FA4B1B5632F8133021F8A4
:105180001030431CD8B20828F5DB7047F54890ED85
:10519000021ADFEDF51AB4EEE11AF1EE10FA7CD244
:1051A00090ED031ADFEDF01AB4EEE11AF1EE10FA09
:1051B0000AD3EE48007803284ED19FEDED1AF4EEA5
:1051C000C10AF1EE10FA47D2EA48B0F90000401CDB
:1051D00000B3E9480078E8B1E648B0F9000001EE14
:1051E000100AB8EEC11ADFEDE51A01EE801ABDEE25
:1051F000C11A11EE100A00B2DE4908800846B0F963
:105200000000B0F5C87F05DD0020DB490870401EB6
:10521000D8490880D848007800286ED1D84800883E
:1052200040F26C71884207DDD5484088884203DD32
:105230000320CE49087060E0D148408840F26C718C
:1052400088425ADDCE48008840F24C41884254DA08
:105250000120C649087050E0C24890ED031ADFED06
:10526000C91AB4EEE11AF1EE10FA0ADCBF48007870
:10527000032836D19FEDC41AF4EEC10AF1EE10FAFC
:105280002FDDBC48B0F90000401C48B3BA48007894
:1052900030BBB848B0F9000000E02BE001EE100A86
:1052A000B8EEC11ADFEDB91A01EE801ABDEEC11ACF
:1052B00011EE100A00B2AF4908800846B0F90000AC
:1052C00040F2DC51884218DD0120AB490870801E95
:1052D000A84908800120AE4908704870AD4908709F
:1052E0000BE0A448B0F90000401C30B90020A149EF
:1052F000088002E000209F49088070473FB5B0EE6B
:10530000402A054699480078012808D1A249284634
:10531000FFF72EFF40F21360A049088032E0934867
:105320000078022808D19C499D48FFF721FF40F2F0
:1053300057409A49088025E08C480078032821D1FD
:10534000874890F90000964931F81000924908808A
:10535000834890F90100924931F810008E49488045
:105360007F4890F9020035F8100088807C4890F959
:1053700003008B4931F810008749C88040F2CF7094
:1053800086490880002427E2834830F8140040F65C
:10539000C411884205DC804830F81400B0F5FA7F6B
:1053A00007DA01207F49085500207F4921F81400C1
:1053B00012E07D4830F81400401C7B4921F81400AD
:1053C000084630F81400C82806DD4FF4FA6021F8CA
:1053D000140000207349085564480078012807D05C
:1053E00062480078022803D06048007803287DD105
:1053F0006C48005D00287AD1674830F8140000B28C
:105400002DF81400694830F91400694931F9141075
:1054100088426DDD6748005DF0BB3DF914006449CA
:1054200031F91410401A00EE100AB8EEC01A5F48A5
:1054300030F914005E4931F91410401A00EE100AD8
:10544000B8EEC00AC1EE000A9FED501A9FED5A0A4D
:1054500010EE810ABDEEC00A10EE100A00B210F57F
:10546000FA7F01DA55484FE03DF91400504931F90F
:105470001410401A00EE100AB8EEC01A4B4830F96A
:1054800014004B4931F91410401A00EE100AB8EE1E
:10549000C00AC1EE000A00E03AE09FED3C1A9FED21
:1054A000460A10EE810ABDEEC00A10EE100A00B2E4
:1054B000B0F5FA7F02DD4FF4FA7025E03DF91400F3
:1054C0003B4931F91410401A00EE100AB8EEC01A28
:1054D000364830F91400364931F91410401A00EEFC
:1054E000100AB8EEC00AC1EE000A02E0C1E0BCE05A
:1054F000B8E09FED261A9FED300A10EE810ABDEE4E
:10550000C00A10EE100A00B22D4921F81400ACE0D8
:105510003DF91400264931F91410401A00EE100A22
:10552000B8EEC01A214830F91400214931F914109D
:10553000401A00EE100AB8EEC00AC1EE000A9FED54
:10554000131A9FED1D0A10EE810ABDEEC00A10EE7F
:10555000100A00B210F5FA7F34DA18487CE0000037
:1055600092040020042C00200000C8C39B040020EB
:1055700000808944D6040020D404002000401C464A
:10558000743300200000C8430080ED4400007A44DA
:1055900084330020ED050020742C002090040020AE
:1055A0005E2B00209C040020642C0020A604002018
:1055B000B6040020C60400200000FA430CFEFFFFE2
:1055C000D42B00203DF91400984931F91410401AE9
:1055D00000EE100AB8EEC01A954830F9140093494D
:1055E00031F91410401A00EE100AB8EEC00AC1EEEC
:1055F000000A1FED1A1A1FED100A10EE810ABDEE07
:10560000C00A10EE100A00B2B0F5FA7F02DD4FF4C6
:10561000FA7021E03DF91400844931F91410401A60
:1056200000EE100AB8EEC01A814830F914007F4924
:1056300031F91410401A00EE100AB8EEC00AC1EE9B
:10564000000A1FED2E1A1FED240A10EE810ABDEE8E
:10565000C00A10EE100A00B2404200B2754921F8AB
:10566000140002E00020744908700020734908709B
:1056700002E00120714908709FED710A22EE000AD4
:10568000704880ED000A3DF9140000EE100AB8EEF3
:10569000C00A6D4800EB8400D0ED000A30EE600ACD
:1056A000B5EEC00AF1EE10FA0DDD3DF9140000EE82
:1056B000100AB8EEC00A644800EB8400D0ED000A7E
:1056C00030EE600A0EE03DF9140000EE100AB8EE6C
:1056D000C00A5D4800EB8400D0ED000A30EE600A9D
:1056E000B1EE400ADFED590AB4EEE00AF1EE10FA2D
:1056F0001DD2504830F9140000EE100AB8EEC00A6E
:10570000514800EB8400D0ED000A70EE600A4E486C
:1057100000EB840090ED000A4A4890ED001A01EE7B
:10572000200A494800EB840080ED000A20E041484F
:1057300030F9140000EE100AB8EEC00A424800EB3F
:105740008400D0ED000A70EE600A3F4800EB840050
:1057500090ED000A3B4890ED001AF6EE001A21EE9B
:10576000211A01EE200A384800EB840080ED000A7F
:105770003748007838B93048007820B99FED350AAD
:10578000314880ED020A304800EB840090ED000AB9
:10579000314800EB8400D0ED000A30EE600A2F485B
:1057A00000EB840080ED000A274800EB840090EDB8
:1057B000000A294800EB840080ED000A1D4830F9FA
:1057C000140000EE100AB8EEC00A254800EB840071
:1057D00080ED000A601CC4B2082CFFF6D5ADE88845
:1057E00000EE100AB8EE400AF0EE400AB0EE420AAF
:1057F000FFF7CCFC1B480088401C80B21949088088
:10580000C82803DD00200880114908703FBD1049F9
:105810000978032903D10021124A118070470C49ED
:10582000087000210F4A118000BFF7E7B60400207E
:10583000A6040020D42B0020D40400209A040020C9
:1058400034337B42D0040020042C00200000C842E6
:105850009B0400200000FAC3242C0020442C0020CC
:10586000E42B0020A404002009F0FCB870470020BD
:1058700070470020704700207047002070470020CC
:1058800070470020704700207047002070470020BC
:1058900070470020704700207047002070470020AC
:1058A00070470020704709F004B970470020704726
:1058B0000020704708F048BF7047000010B508F09E
:1058C00047F9012008F04FF910BD70B502460020DD
:1058D0000AE0145C864B1D781B785B1C844E337089
:1058E000844B5C55431CD8B28842F2DB70BD10B5C6
:1058F0007F4800788049097888425BDD7C480078E1
:105900007D490978401A3F281BDB00207B4908703D
:105910003F207B49087000200BE077490A7809781E
:10592000491C754B197073498A5C754B411C5A545C
:10593000C8B23F28F1DB40227149002009F09FF9ED
:105940009FE06E480078401C6C490870084600785B
:105950006C4909788842F3D100206849087064488E
:10596000007865490978401A65490870002015E0FB
:105970005F490978604A1278891A814208DD5E49D8
:10598000097801445B4A525C5D4B411C5A5403E068
:1059900000225B4B411C5A54411CC8B23F28E7DB34
:1059A000534800785449087040225549002009F0B6
:1059B00066F966E04E4800784F490978884260DA17
:1059C0004D480078C0F580704949097808443F285F
:1059D0001BDB0020494908703F204949087000201E
:1059E0000BE045490A780978491C434B1970414935
:1059F0008A5C434B411C5A54C8B23F28F1DB402219
:105A00003F49002009F03BF93BE03C480078401C4E
:105A10003A490870084600783A490978884230D1F6
:105A200000203649087034480078404230490978EF
:105A3000084433490870002018E02F490978C1F55F
:105A400080712B4A12781144814209DD2A49097874
:105A50000144C9B2274A525C294B411C5A5403E005
:105A60000022274B411C5A54411CC8B23F28E4DB9A
:105A70001F4800782049087040222149002009F081
:105A8000FEF810BD10B50446012C02D0032C11D134
:105A90000EE059B923B1012B05D0022B04D100E04F
:105AA00000BF402010BD00BF00BF00BF00BF01E02D
:105AB0000120F7E700BF0020F4E72DE9F047064694
:105AC000884614469946089F022E02D0032E0CD118
:105AD0000AE0012504E0605DFFF750FA681CC5B2DA
